:020000040800F2
:10000000C804002005010008BD0B0008D307000844
:10001000B90B000869060008A713000800000000DB
:100020000000000000000000000000005D0D00085E
:100030006D06000800000000450C0008A51000082F
:100040001F0100081F0100081F0100081F01000810
:100050001F0100081F0100081F0100081F01000800
:100060001F0100081F0100081F0100081F010008F0
:100070001F0100081F0100081F0100081F010008E0
:100080001F0100081F0100081F0100081F010008D0
:100090001F0100081F0100081F0100081F010008C0
:1000A0001F0100081F0100081F0100081F010008B0
:1000B0001F0100081F0100081F0100081F010008A0
:1000C0001F0100081F0100081F0100081F01000890
:1000D0001F010008091100081F0100081F01000886
:1000E0001F0100081F0100081F010008DFF810D0E1
:1000F00000F01AFA00480047ED1C0008AFF300803A
:10010000C80400200648804706480047FEE7FEE78F
:10011000FEE7FEE7FEE7FEE7FEE7FEE7FEE7FEE7B7
:10012000A9100008ED00000830B50B46014600207C
:100130002022012409E021FA02F59D4205D303FAA9
:1001400002F5491B04FA02F52844151EA2F101022A
:10015000F1DC30BD2DE9F05F0546002092469B465C
:1001600088460646814640241BE0284641464746CD
:10017000224600F0FAF953465A46C01A914110D36C
:1001800011461846224600F0E1F92D1A67EB0108E6
:100190004F4622460120002100F0D8F917EB000954
:1001A0004E41201EA4F10104DFDC484631462A46B8
:1001B0004346BDE8F09F2DE9FE4F804681EA0300EB
:1001C000C00F0C46009021F0004123F00045B8EB31
:1001D0000200A94105D24046214690461C460B46E6
:1001E000024623F00040104347D0270DC7F30A0012
:1001F000C3F30A510290401A019040286BDAC3F30E
:10020000130040F4801B0098924620B10023D2EBEB
:10021000030A63EB0B0B01985946C0F140025046AC
:1002200000F094F906460D4650465946019A00F0F2
:10023000ACF910EB08006141002487EA115284EA0E
:10024000E7731A4340D0009A62B3019A012A4FEA39
:10025000075215DC001B61EB02014FF0004202EA7D
:100260000752CDE90042001C41F5801132462B4671
:1002700000F0ACF903B0BDE8F08F40462146F9E745
:10028000001B61EB0201001C41F5801300185B416B
:100290002018A2F5001747EB030140EAD570B61904
:1002A0006D4111E06D084FEA360645EAC0754FEA28
:1002B0000752001B61EB0201001C41F58011490847
:1002C0004FEA30000019514132462B4603B0BDE8D9
:1002D000F04F00F06CB90098012240000023D0EBF1
:1002E000020263EBE073009821464FEAE074B8EB3A
:1002F000000061EB0401E9E783F000435BE781F074
:10030000004158E72DE9FE4F81EA030404F0004460
:1003100021F0004100944FF0000B23F0004350EA1D
:1003200001045ED052EA03045BD0C3F30A54C1F364
:100330000A552C44A4F2F3340194A0FB0254C1F3F7
:10034000130141F48011C3F3130343F4801301FB41
:10035000024400FB034E840A970A44EA815447EAA8
:100360008357A4FB076802958D0A05FB07854FEAB2
:10037000932C04FB0C542705029D4FEA065847EACC
:100380001637B5EB08056EEB070C870E920E47EAA1
:10039000811742EA8312A7FB0201B6EB0B0164EB63
:1003A00000042B0D43EA0C335E1844EB1C50DA4674
:1003B0005146E7FB0201C5F313044FEA0B3343EA4E
:1003C00014534FEA0432019C43EA0603A4F10C04DF
:1003D0000294009CCDE900B400F0F8F803B0BDE849
:1003E000F08F00200146F9E72DE9F04D81EA030482
:1003F00004F0004B21F0004514464FF0000A23F0B2
:10040000004150EA050220D054EA01021DD0C5F394
:100410000A570246C5F31303C1F31300C1F30A568A
:1004200040F4801543F48013A7EB0608101BD64652
:1004300008F2FD3873EB050002D308F1010801E072
:1004400092185B41B8F1000F03DA00200146BDE8C5
:10045000F08D00204FF48011064684460EE0171BF5
:1004600073EB050705D3121B63EB050306434CEA48
:10047000010C49084FEA300092185B4150EA01072D
:10048000EDD152EA030012D082EA040083EA0501AA
:10049000084305D0101BAB4106D20122002306E021
:1004A00000224FF0004302E06FF0010253101AEBFC
:1004B00006004CEB085110EB0A0041EB0B01BDE8C4
:1004C000F04D00F074B8C1F30A52C1F3130140F2C9
:1004D000FF3341F480119A4202DA0020014670474E
:1004E00040F233439A42A2F2334202DC524200F01D
:1004F0003CB800F02BB8000030B5041E71F10004C8
:1005000004DB4FF00044404264EB0101141E73F120
:10051000000405DB1C464FF00043524263EB04032A
:10052000994208BF904230BD064C074D06E0E06896
:1005300040F0010394E8070098471034AC42F6D32A
:10054000FFF7D8FD5420000874200008202A04DB9F
:10055000203A00FA02F1002070479140C2F12003D6
:1005600020FA03F3194390407047202A04DB203A15
:1005700021FA02F00021704721FA02F3D040C2F1C3
:1005800020029140084319467047202A06DBCB170A
:10059000203A41FA02F043EAE07306E041FA02F33E
:1005A000D040C2F12002914008431946704710B56F
:1005B000141E73F1000408DA401C41F10001921886
:1005C0005B411A4301D120F0010010BD2DE9F04D2F
:1005D00092469B4611B1B1FA81F202E0B0FA80F284
:1005E00020329046FFF7B2FF04460F4640EA0A0069
:1005F00041EA0B0153465A46084313D0114653EAC9
:10060000010019D0C8F140025046FFF7AEFF054681
:100610000E46504659464246FFF798FF084305D01C
:10062000012004E020463946BDE8F08D0020054356
:1006300046EAE0762C4337430A986305E40AA0EBC8
:1006400008000022FD0A44EA47540A3002D500207F
:100650000146E9E7010510196941DDE9084500197E
:100660006941BDE8F04DA2E700BFFEE7704700B565
:10067000034603E04FF47A7000F005F8181EA3F16A
:100680000103F7D100BD00EBC001C9004FF0E0222B
:100690005161002191610521116100BF4FF0E021FE
:1006A000096901F480310029F8D004214FF0E022DB
:1006B000116170472DE9F041024600250026002017
:1006C00000230024002791F803C00CF00F0591F8D7
:1006D00003C00CF0100CBCF1000F03D091F802C065
:1006E0004CEA050591F800C0BCF1000F31D0146848
:1006F00000202BE04FF0010C0CFA00F3B1F800C021
:100700000CEA03069E4220D183004FF00F0C0CFA36
:1007100003F7BC4305FA03FC4CEA040491F803C058
:10072000BCF1280F06D14FF0010C0CFA00FCC2F806
:1007300014C00AE091F803C0BCF1480F05D14FF096
:10074000010C0CFA00FCC2F810C0401C0828D1D3E0
:100750001460B1F800C0BCF1FF0F34DD5468002014
:100760002EE000F1080C4FF0010808FA0CF3B1F884
:1007700000C00CEA03069E4221D183004FF00F0C0B
:100780000CFA03F7BC4305FA03FC4CEA040491F8A5
:1007900003C0BCF1280F05D100F1080C08FA0CF8D1
:1007A000C2F8148091F803C0BCF1480F07D100F1E2
:1007B000080C4FF0010808FA0CF8C2F81080401C31
:1007C0000828CED35460BDE8F081416170470161D3
:1007D000704700BFFEE7000010B500200F49086019
:1007E0000F48006820F470200D4908600846006832
:1007F00040F44030086000200A49C1F8B0010220EE
:10080000FFF741FF0120054908600220FFF73BFF89
:1008100000200449C1F8840110BD000084812142F8
:10082000040C01400080214208B50121082000F09D
:100830001BFA41F20200ADF8000010208DF8030011
:1008400003208DF8020069460448FFF733FF41F2A8
:1008500002010248FFF7BBFF08BD0000000C014089
:1008600010B500200F4908600F48006820F4702080
:100870000D4908600846006840F4403008600120D7
:100880000A49C1F8B0010220FFF7FDFE0120054929
:1008900008600220FFF7F7FE00200449C1F8840138
:1008A00010BD000084812142040C014000802142DF
:1008B00070B5054600241748006820F470201549DB
:1008C00008600846006840F400200860002616E032
:1008D0000020114908600220FFF7D5FE01200F49D2
:1008E000C1F884016006040E0B485438006808B152
:1008F000601CC4B20120FFF7C6FE701CC6B2082EF1
:10090000E6DB15B9FFF7ACFF01E0FFF765FF204616
:1009100070BD0000040C014084812142008021420E
:100920002DE9F0410546884616461F4600F0ACF812
:10093000002141EA4501C8B200F038F800F0F0F8B3
:1009400020B100F0C7F80120BDE8F081404600F07A
:100950002DF800F0E5F818B100F0BCF80120F3E73D
:1009600000F092F8012101EB4501C8B200F01EF839
:1009700000F0D6F818B100F0ADF80120E4E700244B
:100980000DE0781EA04204D00120FFF791FF305502
:1009900003E00020FFF78CFF3055601CC4B2BC425E
:1009A000EFDB00F097F80020CEE7000070B50446BA
:1009B0001848006820F4702016490860084600684E
:1009C00040F44030086000201349086000251EE014
:1009D000E00920B1012010492C31086003E000201B
:1009E0000D492C3108606006040E0220FFF74BFE13
:1009F0000120094908600220FFF745FE0020074951
:100A0000C1F884010220FFF73EFE681CC5B2082D24
:100A1000DEDB70BD040C0140848121420080214254
:100A20002DE9F04105460E461746984600F02CF891
:100A3000002141EA4501C8B2FFF7B8FF00F070F8A5
:100A400020B100F047F80120BDE8F081F0B2FFF7D7
:100A5000ADFF00F065F818B100F03CF80120F3E7B5
:100A600000240BE0385DFFF7A1FF00F059F818B142
:100A700000F030F80120E7E7601CC4B24445F1DB28
:100A800000F028F80020DFE710B50F48006820F4D8
:100A900070200D4908600846006840F44030086046
:100AA00001200A4908600A49C1F884010420FFF7BF
:100AB000EAFD0020054908600420FFF7E4FD00205E
:100AC0000349C1F8840110BD040C0140B0812142EA
:100AD0000080214210B50F48006820F470200D49B5
:100AE00008600846006840F44030086000200A4969
:100AF00008600A49C1F8B0010420FFF7C4FD0120D5
:100B0000054908600549C1F8B0010420FFF7BBFDA5
:100B100010BD0000040C014084812142008021426C
:100B200010B500241448006820F4702012490860B1
:100B30000846006840F40020086001200F49086062
:100B4000FFF7A1FD01200E49C1F88401FFF79BFDCD
:100B500007E0601CC4B2FA2C03DDFFF7BBFF0120E5
:100B600010BD0648803800680028F2D103492C39AE
:100B7000086000BFF4E70000040C0140B08121428E
:100B80000080214208B50121102000F06DF81020EE
:100B90008DF80300C002ADF8000003208DF80200BC
:100BA00069460448FFF786FD4FF400410148FFF70E
:100BB0000EFE08BD0010014000BFFEE770470000B8
:100BC00070B5002100230F22C47804B3154C2468AB
:100BD00004F4E064C4F5E064210AC1F10403CA40EE
:100BE000447804FA03F184781440214309010E4C3F
:100BF0000678A155047804F01F050124AC4005785F
:100C00006D11AD0005F1E025C5F8004109E004785B
:100C100004F01F050124AC40044D0678761145F818
:100C2000264070BD0CED00E000E400E080E100E053
:100C300002490143024A1160704700000000FA05B2
:100C40000CED00E07047000029B1064AD26902436A
:100C5000044BDA6104E0034AD2698243014BDA6152
:100C6000704700000010024029B1064A9269024311
:100C7000044B9A6104E0034A92698243014B9A61F2
:100C8000704700000010024030B50021002200240F
:100C900000232D4D6D6805F00C0121B1042905D00C
:100CA000082923D105E0294D056022E0274D056084
:100CB0001FE0254D6D6805F47012234D6D6805F435
:100CC0008034022505EB92421CB9214D5543056045
:100CD0000BE01D4D6D6805F400351DB11C4D5543ED
:100CE000056002E0194D5543056002E0174D0560AF
:100CF00000BF00BF144D6D6805F0F0010909154DE6
:100D00006B5C0568DD4045600F4D6D6805F4E06182
:100D1000090A104D6B5C4568DD4085600A4D6D68C1
:100D200005F46051C90A0B4D6B5C4568DD40C56038
:100D3000054D6D6805F44041890B074D6B5CC56836
:100D4000B5FBF3F5056130BD0010024000127A00DA
:100D500000093D000000002010000020704770B521
:100D600004460D462946204600F019FB00BF8021AD
:100D7000204600F046FA0028F9D070BD70B506464E
:100D80000C46002505E0615D3046FFF7E8FF681C72
:100D9000C5B2605D0028F6D170BD2DE9F04107466F
:100DA0000D461646002400BF05E0295D3846FFF7D2
:100DB000D6FF601CC4B2B442F7DBBDE8F08100008E
:100DC00010B586B0044601218803FFF74DFF0121CD
:100DD0000420FFF749FF18208DF817004FF400702A
:100DE000ADF8140003208DF8160005A91F48FFF781
:100DF00061FC48208DF817004FF48060ADF81400B6
:100E000003208DF8160005A91848FFF753FC01943C
:100E10000020ADF810000C20ADF80E000020ADF859
:100E20000C00ADF80A00ADF8080001A9104800F068
:100E300045FA012240F225510D4800F019FA4FF40D
:100E4000A060FFF7F5FE25208DF8000001208DF849
:100E500003008DF801008DF802006846FFF7B0FE30
:100E60000121034800F0C1F906B010BD000801409F
:100E70000038014010B504462146054800F08FFABD
:100E800000BF8021024800F0BCF90028F9D010BD55
:100E90000038014010B586B0044601214804FFF730
:100EA000D3FE01210420FFF7DFFE18208DF8170084
:100EB0000420ADF8140003208DF8160005A914488D
:100EC000FFF7F8FB48208DF817000820ADF8140054
:100ED00003208DF8160005A90D48FFF7EBFB0194E0
:100EE0000020ADF810000C20ADF80E000020ADF889
:100EF0000C00ADF80A00ADF8080001A9054800F0A3
:100F0000DDF90121034800F070F906B010BD0000C2
:100F1000000801400044004010B586B0044601219D
:100F20008804FFF791FE01210820FFF79DFE18209D
:100F30008DF817004FF48060ADF8140003208DF891
:100F4000160005A91448FFF7B5FB48208DF81700D7
:100F50004FF40060ADF8140003208DF8160005A9C9
:100F60000D48FFF7A7FB01940020ADF810000C20FE
:100F7000ADF80E000020ADF80C00ADF80A00ADF899
:100F8000080001A9054800F099F90121034800F083
:100F90002CF906B010BD0000000C014000480040D4
:100FA00010B54FF4E130FFF70BFF4FF4E130FFF7DE
:100FB00071FF4FF4E130FFF7AFFF10BD10B500F047
:100FC00001F810BD0CB50020019000903348006876
:100FD00040F480303149086000BF3048006800F4B8
:100FE000003000900198401C0190009818B90198B9
:100FF000B0F5A06FF1D12948006800F4003010B1BD
:101000000120009001E0002000900098012843D1C9
:101010002348006840F01000214908600846006835
:1010200020F0030008600846006840F002000860F5
:101030001A484068194948600846406848600846B0
:10104000406840F4806048600846406820F47C10A6
:1010500048600846406840F4E81048600846006868
:1010600040F08070086000BF0C48006800F000701D
:101070000028F9D00948406820F00300074948607B
:101080000846406840F00200486000BF03484068DE
:1010900000F00C000828F9D10CBD0000001002403F
:1010A000002002407047000010B51348006840F06F
:1010B00001001149086008464068104908400E497F
:1010C0004860084600680E4908400B490860084619
:1010D000006820F4802008600846406820F4FE0084
:1010E00048604FF41F008860FFF768FF4FF0006012
:1010F0000449086010BD0000001002400000FFF825
:10110000FFFFF6FE08ED00E010B540F225512A4839
:1011100000F084F801284DD1274800F03BF9C4B213
:101120002A2C01D100F052FF24480078C0B924488D
:101130000078002838D1232C03D0402C01D0242C57
:1011400032D101201D49087000201E4908701E4838
:10115000097844541B480078401C1A49087023E061
:101160001648007801281FD1212C14D100201349E2
:101170000870154813490978445412480078401CF7
:1011800010490870002010490E4A12788854012036
:101190000B49087008E00C480A490978445409488A
:1011A0000078401C0749087040F22551024800F0C1
:1011B0000DF800BF10BD00000038014015000020F0
:1011C00014000020160000203000002010B500227E
:1011D000002340F66A14A14200D100BF0A12012484
:1011E0009440A3B2DC43048010BD21B1828942F453
:1011F0000052828104E082894DF6FF731A40828199
:10120000704702460020B1F5007F00D100BF13886F
:101210000B400BB1012000E00020704770B5024682
:10122000002400230025002040F66A16B14200D1B8
:1012300000BFC1F3421501F01F03012606FA03F3B4
:10124000012D02D19689334006E0022D02D1168A83
:10125000334001E0968A33400C12012606FA04F46A
:101260001688344013B10CB1012000E0002070BD9D
:10127000F0B50346002400260025002040F66A173A
:10128000B94200D100BF1846C1F3421401F01F0655
:10129000012707FA06F5012C01D10C3004E0022CDD
:1012A00001D1103000E014301AB107682F430760F5
:1012B00002E00768AF430760F0BD00002DE9F0478A
:1012C00086B005460E460024A24600BFA146002770
:1012D000B08900B100BF2F462C8A4CF6FF70044045
:1012E000F08804432C82AC894EF6F3100440B08899
:1012F00031890843718908430443AC81AC8A4FF6B5
:10130000FF400440B0890443AC8201A8FFF7BCFC55
:101310001F48874202D1DDF810A001E0DDF80CA0E3
:10132000A88900F4004040B10AEBCA0000EB0A10A3
:1013300031684900B0FBF1F807E00AEBCA0000EBA6
:101340000A1031688900B0FBF1F86420B8FBF0F0B6
:1013500004012009642101FB1089A88900F40040E0
:1013600040B1322000EBC900B0FBF1F000F0070003
:10137000044308E0322000EB09106421B0FBF1F0D7
:1013800000F00F0004432C8106B0BDE8F087000098
:101390000038014001468888C0F308007047C1F357
:1013A00008028280704700BFFEE700000FB4054BC3
:1013B00010B503A9044A029800F0DAF810BC5DF8F1
:1013C00014FB0000BD1C00082C00002002E008C82F
:1013D000121F08C1002AFAD170477047002001E0AF
:1013E00001C1121F002AFBD1704700002DE9FF5FE9
:1013F00082B00021DDE90430020DDDF840B0034386
:1014000018D044F61050A2F2FF324243151411983E
:1014100001281FD0A5EB0B00401C5FEA000A4FF02B
:1014200000064E4FDFF83891B046504615D5CAF148
:10143000000413E0119801244AA3012801D16FEAA6
:101440000B010298119AC0E90031C0E9024206B0CE
:10145000BDE8F09FCBF10000DFE704460021404AE1
:10146000491842EB0450CDE9001012E0E00707D024
:1014700032463B4640464946FEF744FF8046894691
:1014800032463B4610461946FEF73CFF06460F46DD
:101490006410002CEAD1DDE90401DDE90023BAF192
:1014A000000F06DAFEF72EFF42464B46FEF72AFFF4
:1014B00005E0FEF799FF42464B46FEF795FF0446CE
:1014C0000E460022284BFFF717F803D84FF0FF30E5
:1014D000014607E00022254B20463146FEF76BFE11
:1014E000FEF7F1FF102409E0002C0ADB0A2200239A
:1014F000FEF730FE039B30321A55641E50EA01029B
:10150000F2D1641C039AC4F111031444119A012A04
:1015100003D0012208430DD10AE0084304D0002083
:101520004FF0110B119072E7A3EB0B056D1E0DE050
:101530005B4504DD4FF0000205F1010504E003DA2C
:101540004FF00002A5F10105002AECD00298119994
:10155000C0E90231C0E9004579E70000000014400D
:101560000000F03F300000000000F0430000E03FCA
:101570002DE9FF4F95B09A46884606460025EEE1D4
:10158000252877D100242746F94A0121039400E059
:10159000044316F8013F203B01FA03F01042F7D153
:1015A00030782A2811D06FF02F033078A0F1300264
:1015B000092A16D8039A44F0020402EB820203EBD4
:1015C00042021044761C0390EFE758F8042B039274
:1015D000002A03DA504244F40054039044F0020419
:1015E000761C30782E2816D116F8010F44F004042A
:1015F0002A280DD06FF02F023078A0F13003092B8C
:1016000009D807EB870302EB4303C718761CF3E7FF
:1016100058F8047B761C30786C280FD006DC4C28F8
:1016200017D068280DD06A2814D104E0742810D08F
:101630007A280FD10DE044F400140AE044F4801439
:1016400001E044F440147278824202D104F580141F
:10165000761C761C307866280BD013DC582877D09F
:1016600009DC002875D04528F6D04628F4D0472854
:101670001AD193E118E0632835D0642879D0652821
:1016800012D18BE1702873D008DC6728F1D069286B
:101690006FD06E280DD06F2806D1ACE073282CD007
:1016A000752874D0782853D05246179990476D1CEE
:1016B00054E1C4F30250022809D003280DD0D8F811
:1016C000001004280DD00D6008F1040846E1D8F898
:1016D0000010EA17C1E90052F6E7D8F800100D80B3
:1016E000F2E70D70F0E718F8041B8DF800100020E9
:1016F0008DF80100EB46012003E058F804BB4FF0E1
:10170000FF3061074FF0000102D40DE009F1010143
:101710008946B9420FDA8145F8DB1BF80910002928
:10172000F4D108E009F1010189468142FADB1BF896
:1017300009100029F6D103985346A0EB090721466A
:101740003846179A00F080FA284400EB090507E0B4
:1017500044E008E10DE01BF8010B52461799904751
:10176000B9F10109F7D2534621463846179AF2E0FB
:1017700039E00A21C4F302524FF0000B0091022A13
:1017800006D058F8040BC117032A09D00AE023E059
:1017900008F1070020F00702F2E80201904605E098
:1017A00000B2C117042A01D140B2C117002906DADC
:1017B0000A460021404261EB02012D2202E022058F
:1017C00004D52B228DF80420012203E0E20701D08A
:1017D0002022F7E7914657E00A2100E010214FF060
:1017E000000B00910BE010214FF0000B44F00404BB
:1017F0000827009103E008204FF0000B0090C4F38D
:101800000252022A05D058F8040B0021032A08D0FE
:1018100008E008F1070020F00702F2E80201904614
:1018200003E080B2042A00D1C0B24FF000092207C1
:101830002AD53278702A07D0DDF800C08CF0100C61
:101840005CEA0B0C05D00EE040228DF8042001224A
:1018500008E050EA010306D030238DF804308DF8FB
:10186000052002229146009B83F0080353EA0B03F4
:101870000AD150EA010201D1620705D530228DF864
:1018800004204FF001097F1E3278582A04D039A273
:101890000C920CAA02920BE03BA2F9E75B46009A7D
:1018A000FEF758FC0C9B9B5C029A521E029213702E
:1018B00050EA0102F2D1029804A9081A00F1200BA3
:1018C000600702D524F4803400E001275F4502DD83
:1018D000A7EB0B0000E0002000EB0B010090039849
:1018E0004944401A0390E00306D453462146179A10
:1018F000039800F0A9F90544002706E001A8524624
:10190000C05D179990476D1C7F1C4F45F6DBE003C7
:101910000CD553462146179A039800F095F90544D3
:1019200004E030205246179990476D1C0099481EDC
:1019300000900029F5DC08E00298029952460078F0
:10194000491C0291179990476D1CBBF10001ABF146
:10195000010BF1DC5BE100F065F90544761C3078A1
:1019600000287FF40DAE19B02846BDE8F08F0000C6
:101970000928010030313233343536373839616265
:101980006364656600000000303132333435363729
:10199000383941424344454600000000600700D406
:1019A000062708F1070020F00700F0E80223804630
:1019B00003F0004C5FEA0C0001D097A009E020057D
:1019C00001D596A005E0E00701D095A001E0AFF2B7
:1019D0004C001390307823F0004365280CD006DCCF
:1019E000452809D046281DD047287FD13BE06628EE
:1019F00018D067287AD136E00021112F01DB1120A1
:101A000000E0781CCDE9000104A90CA8FFF7EEFC6A
:101A1000DDE90D010C9A4FF0000B07F1010910925E
:101A200000914EE04FF000400097CDE9011004A96D
:101A30000CA8FFF7DBFCDDE90D020C9B0F994FF0C2
:101A4000000B91461093009211B9791C00EB01092B
:101A5000B7EB090003D4C0F1FF3B07F10109A9EB83
:101A60000700019042E0012F00DA01270021112F29
:101A700001DD112000E03846CDE9000104A90CA8E1
:101A8000FFF7B4FCDDE90D010C9A00914FF0000B5B
:101A9000B946109221070FD4009A4A4503DA9146BD
:101AA00001E0A9F10109B9F1010F05DD109AA9F1D1
:101AB0000101515C3029F4D0B84202DA10F1040F70
:101AC00003DA0121CDE9011010E0002803DC834492
:101AD000A9EB000102E0411C494500DD8946A0EB6D
:101AE0000B00401C01904FF000400290200705D4ED
:101AF0000198484502DB4FF0FF30019000208DF83F
:101B00004B0002980DF14B07B0F1004F25D0022099
:101B10000C902B200D90029800280CDA4042029085
:101B20002D200D9007E00A210298FEF7FDFA3031D2
:101B3000029007F8011D0C99481E0C900029F2DC58
:101B400002980028EFD1791E0D980870307800F0C7
:101B5000200040F0450007F8020D11A8C01BC01D71
:101B600002901398007800B1012000EB0901019860
:101B700001EBE071029801440398401A401E039063
:101B8000E00306D453462146179A039800F05CF808
:101B900005441398007818B15246179990476D1C68
:101BA000E00323D553462146179A039800F04CF8DA
:101BB00005441BE0BBF1000F07DB0098584504DD2E
:101BC0001098179910F80B0001E017993020524631
:101BD000904701980BF1010B401E05F101050190A2
:101BE00004D12E205246179990476D1CB9F100017F
:101BF000A9F10109DEDC05E017F8010B524617993F
:101C000090476D1C0299481E02900029F4DC53464F
:101C10002146179A03989EE62D0000002B00000035
:101C2000200000002DE9F041044600251E4617461D
:101C3000880404D405E039462020B0476D1C641E9A
:101C4000F9D52846BDE8F0812DE9F041044600258C
:101C50001E469046C80301D5302700E0202788049F
:101C600004D505E041463846B0476D1C641EF9D5E1
:101C70002846BDE8F0810000002000BF17E00D4AB3
:101C800012F820108200521C0A4B9A5C18329140C4
:101C90008200921C9A5C103291408200D21C9A5CA5
:101CA00008329140044A42F82010411CC8B204286E
:101CB000E5DB7047A40000209400002070B50446C6
:101CC0000D46E0B2FFF7D6F8204670BD10B50446C9
:101CD00020210548FEF77BFD2046FEF7C8FC2021A9
:101CE0000148FEF772FD10BD0008014008B500F084
:101CF00055F938E01C480078012834D11B491C48AC
:101D0000FFF73CF819480078402803D100F058F854
:101D100000F052F915480078232809D100F0A2F804
:101D200014480288144801881448007800F0F6F836
:101D30000E480078242813D100F052F9104800888A
:101D4000FFF7C4FF00F084F8FFF796FF0D48006925
:101D500000900C48C368426801680BA0FFF726FB9F
:101D6000002001490870C5E7140000203000002061
:101D7000003801402400002022000020260000201E
:101D80002800002094000020656E636F6465723146
:101D90003D256C642C656E64636F646572323D250D
:101DA0006C642C656E636F646572333D256C642CC6
:101DB000656E636F646572343D256C64200D0A00A6
:101DC000002000BF25E08100891C134A515C303996
:101DD000642251438200D21C0F4B9A5C303A02EBD2
:101DE000820201EB42028100091D595C1144303925
:101DF00049B20A4A11548100491C1A46515C3129E2
:101E000005D10649095C494249B2044A1154411CB2
:101E1000C8B20428D7DB7047300000201A00002029
:101E20001CB50320019000200090042301AA032187
:101E30003420FEF7F5FD0520FEF719FC01236A4664
:101E400015213420FEF7ECFD0520FEF710FC1CBD2B
:101E500010B51023024A3C213420FEF761FD10BD6D
:101E6000A40000201E48C07830381E4908701C4865
:101E7000407930384FF47A714843194989793039BB
:101E800001EBC10202EB011100EB81011448C079A2
:101E9000303800EB800001EB40011148007A303807
:101EA0000844114908800E48807A30384FF47A711E
:101EB00048430B49C97A303901EBC10202EB0111E9
:101EC00000EB81010648007B303800EB800001EB1D
:101ED00040010348407B303808440449088070477B
:101EE00030000020260000202400002022000020D6
:101EF00008B501210420FEF7B7FE0320ADF800006D
:101F000010208DF8030003208DF802006946024876
:101F1000FEF7D0FB08BD0000000801402DE9F047A6
:101F200080460D4616464FF000090724002755202D
:101F3000174908704870084680F80280C470012074
:101F400008714E7130128871CD7128120872022703
:101F500004E00F48C05D8144781CC7B2601C874212
:101F6000F7DD6FEA0900C1B2094AA01C1154012132
:101F70000848FEF72AFC02210648FEF728FCE01C70
:101F8000C2B203490448FEF708FFBDE8F08700002D
:101F9000B4000020000801400044004010B5FEF7E6
:101FA000FFFFFEF7EFFDFEF73FFCFFF739FFFFF7FE
:101FB0009FFF00F031F810BD10B50423024A332111
:101FC0003420FEF72DFD10BD1A00002010B50423AB
:101FD000024A33213420FEF723FD10BD1E000020ED
:101FE000002000210A4A118001200CE00949095C07
:101FF0003039074A128802EB820201EB4201044A9F
:102000001180411CC8B20349095C2129EED17047F7
:10201000280000203000002008B501210420FEF730
:1020200023FE3020ADF8000010208DF803000320BF
:102030008DF8020069460648FEF73CFB1021044873
:10204000FEF7C3FB20210248FEF7BFFB08BD0000DE
:10205000000801407420000800000020300000004B
:10206000CC130008A42000083000002098040000D1
:10207000DC13000800000000010203040102030455
:10208000060708090204060800000000000000001E
:102090000000000000000000000000000000000040
:0420A000000000003C
:04000005080000ED02
:00000001FF
