:020000040800F2
:10000000900400200501000801050008B302000863
:10001000FD0400084D010008830C000800000000EA
:10002000000000000000000000000000A106000821
:100030005101000800000000890500086909000856
:100040001F0100081F0100081F0100081F01000810
:100050001F0100081F0100081F0100081F01000800
:100060001F0100081F0100081F0100081F010008F0
:100070001F0100081F0100081F0100081F010008E0
:100080001F0100081F0100081F0100081F010008D0
:100090001F0100081F0100081F0100081F010008C0
:1000A0001F0100081F0100081F0100081F010008B0
:1000B0001F0100081F0100081F0100081F010008A0
:1000C0001F0100081F0100081F0100081F01000890
:1000D0001F010008CD0900081F0100081F010008CA
:1000E0001F0100081F0100081F010008DFF810D0E1
:1000F00000F01AF800480047C90C0008AFF3008070
:10010000900400200648804706480047FEE7FEE7C7
:10011000FEE7FEE7FEE7FEE7FEE7FEE7FEE7FEE7B7
:100120006D090008ED000008064C074D06E0E06888
:1001300040F0010394E8070098471034AC42F6D32E
:10014000FFF7D8FFEC0D00080C0E000800BFFEE71B
:10015000704700B5034603E04FF47A7000F005F8ED
:10016000181EA3F10103F7D100BD00EBC001C900C7
:100170004FF0E0225161002191610521116100BF22
:100180004FF0E021096901F480310029F8D0042101
:100190004FF0E022116170472DE9F0410246002541
:1001A0000026002000230024002791F803C00CF053
:1001B0000F0591F803C00CF0100CBCF1000F03D038
:1001C00091F802C04CEA050591F800C0BCF1000F9F
:1001D00031D0146800202BE04FF0010C0CFA00F332
:1001E000B1F800C00CEA03069E4220D183004FF014
:1001F0000F0C0CFA03F7BC4305FA03FC4CEA0404A9
:1002000091F803C0BCF1280F06D14FF0010C0CFA95
:1002100000FCC2F814C00AE091F803C0BCF1480F1A
:1002200005D14FF0010C0CFA00FCC2F810C0401CC4
:100230000828D1D31460B1F800C0BCF1FF0F34DD41
:10024000546800202EE000F1080C4FF0010808FA75
:100250000CF3B1F800C00CEA03069E4221D18300E2
:100260004FF00F0C0CFA03F7BC4305FA03FC4CEA01
:10027000040491F803C0BCF1280F05D100F1080C6B
:1002800008FA0CF8C2F8148091F803C0BCF1480FCA
:1002900007D100F1080C4FF0010808FA0CF8C2F879
:1002A0001080401C0828CED35460BDE8F081016165
:1002B000704700BFFEE7000008B50121082000F0EC
:1002C00075F941F20200ADF8000010208DF803002E
:1002D00003208DF8020069460448FFF75DFF41F2F4
:1002E00002010248FFF7E3FF08BD0000000C0140D7
:1002F00070B504461848006820F070401649086040
:100300000846006840F0405008600020134908602B
:1003100000251EE0E00920B1012010492C310860C1
:1003200003E000200D492C3108606006040E022015
:10033000FFF71BFF0120094908600220FFF715FFA6
:1003400000200749C1F884010220FFF70EFF681C56
:10035000C5B2082DDEDB70BD000C01408481214256
:10036000008021422DE9F04105460E461746984689
:1003700000F02CF8002141EA4501C8B2FFF7B8FFB0
:1003800000F070F820B100F047F80120BDE8F081DE
:100390003046FFF7ADFF00F065F818B100F03CF80B
:1003A0000120F3E700240BE0385DFFF7A1FF00F028
:1003B00059F818B100F030F80120E7E7601CC4B22A
:1003C0004445F1DB00F028F80020DFE710B50F48C6
:1003D000006820F070400D4908600846006840F051
:1003E0004050086001200A4908600A49C1F88401A8
:1003F0000420FFF7BAFE0020054908600420FFF73B
:10040000B4FE00200349C1F8840110BD000C014076
:10041000B08121420080214210B50F48006820F0D1
:1004200070400D4908600846006840F04050086080
:1004300000200A4908600A49C1F8B0010420FFF70A
:1004400094FE0120054908600549C1F8B001042067
:10045000FFF78BFE10BD0000000C0140848121429B
:100460000080214210B500241448006820F070403C
:10047000124908600846006840F00040086001200A
:100480000F490860FFF771FE01200E49C1F8840191
:10049000FFF76BFE07E0601CC4B2FA2C03DDFFF728
:1004A000BBFF012010BD0648803800680028F2D14B
:1004B00003492C39086000BFF4E70000000C01403C
:1004C000B08121420080214208B50121102000F0B6
:1004D0006DF810208DF80300C002ADF80000032075
:1004E0008DF8020069460448FFF756FE4FF40041BC
:1004F0000148FFF7DCFE08BD0010014000BFFEE729
:100500007047000070B5002100230F22C47804B3A7
:10051000154C246804F4E064C4F5E064210AC1F1D8
:100520000403CA40447804FA03F184781440214358
:1005300009010E4C0678A155047804F01F0501242A
:10054000AC4005786D11AD0005F1E025C5F800411E
:1005500009E0047804F01F050124AC40044D06783E
:10056000761145F8264070BD0CED00E000E400E097
:1005700080E100E002490143024A11607047000037
:100580000000FA050CED00E07047000029B1064AB2
:10059000D2690243044BDA6104E0034AD269824320
:1005A000014BDA61704700000010024029B1064A91
:1005B00092690243044B9A6104E0034A92698243C0
:1005C000014B9A61704700000010024030B50021D5
:1005D0000022002400232D4D6D6805F00C0121B18F
:1005E000042905D0082923D105E0294D056022E022
:1005F000274D05601FE0254D6D6805F47012234DF1
:100600006D6805F48034022505EB92421CB9214D3A
:10061000554305600BE01D4D6D6805F400351DB1B7
:100620001C4D5543056002E0194D5543056002E03D
:10063000174D056000BF00BF144D6D6805F0F00157
:100640000909154D6B5C0568DD4045600F4D6D680F
:1006500005F4E061090A104D6B5C4568DD4085607A
:100660000A4D6D6805F46051C90A0B4D6B5C456815
:10067000DD40C560054D6D6805F44041890B074DAF
:100680006B5CC568B5FBF3F5056130BD0010024039
:1006900000127A0000093D00000000201000002038
:1006A0007047000010B586B0044601218803FFF7AB
:1006B0007DFF01210420FFF779FF18208DF8170036
:1006C0004FF40070ADF8140003208DF8160005A952
:1006D0001F48FFF761FD48208DF817004FF4806038
:1006E000ADF8140003208DF8160005A91848FFF78F
:1006F00053FD01940020ADF810000C20ADF80E0061
:100700000020ADF80C00ADF80A00ADF8080001A912
:10071000104800F045FA012240F225510D4800F042
:100720001AFA4FF4A060FFF725FF25208DF800008E
:1007300001208DF803008DF801008DF80200684655
:10074000FFF7E0FE0121034800F0CFF906B010BD2D
:10075000000801400038014010B586B00446012170
:100760004804FFF713FF01210420FFF71FFF1820A3
:100770008DF817000420ADF8140003208DF8160042
:1007800005A91448FFF708FD48208DF81700082038
:10079000ADF8140003208DF8160005A90D48FFF7E9
:1007A000FBFC01940020ADF810000C20ADF80E0009
:1007B0000020ADF80C00ADF80A00ADF8080001A962
:1007C000054800F0EDF90121034800F08EF906B06C
:1007D00010BD0000000C01400044004010B586B080
:1007E000044601218804FFF7D1FE01210820FFF70C
:1007F000DDFE18208DF817004FF48060ADF814006E
:1008000003208DF8160005A91448FFF7C5FC482001
:100810008DF817004FF40060ADF8140003208DF838
:10082000160005A90D48FFF7B7FC01940020ADF8AC
:1008300010000C20ADF80E000020ADF80C00ADF853
:100840000A00ADF8080001A9054800F0A9F9012146
:10085000034800F04AF906B010BD0000000C01404A
:100860000048004010B54FF4E130FFF71BFF4FF494
:10087000E130FFF771FF4FF4E130FFF7AFFF10BD3C
:1008800010B500F001F810BD0CB5002001900090EB
:100890003348006840F480303149086000BF304878
:1008A000006800F4003000900198401C019000980E
:1008B00018B90198B0F5A06FF1D12948006800F48B
:1008C000003010B10120009001E00020009000985D
:1008D000012843D12348006840F0100021490860F6
:1008E0000846006820F0030008600846006840F0F1
:1008F000020008601A484068194948600846406884
:1009000048600846406840F4806048600846406897
:1009100020F47C1048600846406840F4E8104860C5
:100920000846006840F08070086000BF0C4800680E
:1009300000F000700028F9D00948406820F003005A
:10094000074948600846406840F00200486000BF20
:100950000348406800F00C000828F9D10CBD0000E5
:1009600000100240002002407047000010B51348FC
:10097000006840F0010011490860084640681049CD
:1009800008400E494860084600680E4908400B4977
:1009900008600846006820F4802008600846406827
:1009A00020F4FE0048604FF41F008860FFF768FFE6
:1009B0004FF000600449086010BD000000100240C4
:1009C0000000FFF8FFFFF6FE08ED00E010B540F272
:1009D0002551394800F095F801286BD1364800F0D0
:1009E0004BF9C4B235480078002839D13448007832
:1009F00078B9232C0DD101203049087000203149ED
:100A000008703148097844542E480078401C2D491C
:100A100008702B480078002846D1204600F042F9A3
:100A2000002841D000202749087040202649254A47
:100A30001278885423480078401C224908702248C4
:100A4000097844541F480078401C1E490870002053
:100A50001D491C4A1278885401201949087023E066
:100A60001648007801281FD1212C14D100201349E9
:100A70000870154813490978445412480078401CFE
:100A800010490870002010490E4A1278885401203D
:100A90000B49087008E00C480A4909784454094891
:100AA0000078401C0749087040F22551024800F0C8
:100AB0000DF800BF10BD0000003801401C000020F0
:100AC000140000201D0000202800002010B5002286
:100AD000002340F66A14A14200D100BF0A1201248B
:100AE0009440A3B2DC43048010BD21B1828942F45A
:100AF0000052828104E082894DF6FF731A408281A0
:100B0000704770B50246002400230025002040F6FF
:100B10006A16B14200D100BFC1F3421501F01F03B4
:100B2000012606FA03F3012D02D19689334006E02F
:100B3000022D02D1168A334001E0968A33400C120E
:100B4000012606FA04F41688344013B10CB10120D2
:100B500000E0002070BDF0B503460024002600250B
:100B6000002040F66A17B94200D100BF1846C1F311
:100B7000421401F01F06012707FA06F5012C01D1E6
:100B80000C3004E0022C01D1103000E014301AB116
:100B900007682F43076002E00768AF430760F0BDB6
:100BA0002DE9F04786B005460E460024A24600BF58
:100BB000A1460027B08900B100BF2F462C8A4CF611
:100BC000FF700440F08804432C82AC894EF6F31089
:100BD0000440B08831890843718908430443AC81DB
:100BE000AC8A4FF6FF400440B0890443AC8201A8B0
:100BF000FFF7ECFC1F48874202D1DDF810A001E0AE
:100C0000DDF80CA0A88900F4004040B10AEBCA004E
:100C100000EB0A1031684900B0FBF1F807E00AEB7D
:100C2000CA0000EB0A1031688900B0FBF1F86420BB
:100C3000B8FBF0F004012009642101FB1089A889A8
:100C400000F4004040B1322000EBC900B0FBF1F0ED
:100C500000F00700044308E0322000EB0910642193
:100C6000B0FBF1F000F00F0004432C8106B0BDE8AA
:100C7000F08700000038014001468888C0F3080072
:100C8000704700BFFEE702E008C8121F08C1002A33
:100C9000FAD170477047002001E001C1121F002AFD
:100CA000FBD170470246002107E00648405C9042B5
:100CB00001D101207047481CC1B20729F5DB002093
:100CC000F8E700001500002000F051F834E01B4860
:100CD0000078012830D11A480078402829D11848D6
:100CE0004078702820D004DC612815D064281ED1FB
:100CF00016E0732808D0772819D132231A461946EE
:100D0000184600F03FF813E06FF031031A46194619
:100D1000184600F037F80BE0322000F049F807E001
:100D2000322000F050F803E000F058F800E000BF77
:100D300000BF002001490870C9E70000140000202E
:100D4000280000201CB503200190012000900423FE
:100D500001AA03213420FFF705FB0520FFF7F9F96D
:100D600001236A4615213420FFF7FCFA1CBD10B59B
:100D7000FFF778FDFFF7A8FBFFF79EFAFFF7E2FF0A
:100D800010BD00002DE9F04107460C4615461E46F1
:100D90000648077044708570C670042302463321EC
:100DA0003420FFF7DFFABDE8F081000021000020C9
:100DB00010B504462346604242B2604241B220462A
:100DC000FFF7E0FF10BD10B50446604243B2224673
:100DD0002146604240B2FFF7D5FF10BD10B5002399
:100DE0001A4619461846FFF7CDFF10BD0C0E000835
:100DF0000000002028000000860C0008340E0008C7
:100E00002800002068040000960C00080000000084
:100E1000010203040102030406070809020406088C
:100E2000007773616420787000000000000000000B
:040E300000000000BE
:04000005080000ED02
:00000001FF
