:020000040800F2
:10000000C80A002049010008A5290008FF1B0008B4
:10001000C52400087D1300080F3F00080000000001
:10002000000000000000000000000000CD2E0008CD
:1000300029150008000000005D2D0008513500085A
:100040006301000863010008630100086301000800
:10005000630100086301000821160008630100081D
:100060006301000871160008CD160008630100083E
:1000700063010008630100086301000863010008D0
:1000800063010008630100086301000863010008C0
:1000900063010008630100086301000863010008B0
:1000A00063010008630100086301000863010008A0
:1000B000B535000829360008A53600086301000898
:1000C0006301000863010008630100086301000880
:1000D00063010008A13B0008553C0008093D0008E9
:1000E0006301000863010008630100086301000860
:1000F0006301000863010008630100086301000850
:10010000630100086301000863010008630100083F
:10011000B53A0008ED3A00086301000863010008E1
:10012000630100086301000863010008630100081F
:10013000DFF810D000F0F8FE0048004759620008D0
:10014000AFF30080C80A00200648804706480047F1
:10015000FEE7FEE7FEE7FEE7FEE7FEE7FEE7FEE777
:10016000FEE7FEE7553500083101000840EA0103CB
:100170009B0703D009E008C9121F08C0042AFAD25D
:1001800003E011F8013B00F8013B521EF9D2704721
:10019000D2B201E000F8012B491EFBD270470022C9
:1001A000F6E710B513460A4604461946FFF7F0FF76
:1001B000204610BD0FB400B58DB010A909900B906A
:1001C00000914FF0FF300A9000200C9005480690F7
:1001D000054807906A4609A80F9900F0A7FD0DB0E1
:1001E0005DF814FB490D0008670D00082DE9FF5F5D
:1001F0001D464FF0FF3BD5E9014691465F464FF063
:100200000008A9697F1C01988847296A82468847A7
:100210000028F6D1BAF1FF3F0CD024F4C064002EC0
:1002200019DD600614D5BAF12B0F09D0BAF12D0FE4
:100230000ED103E0584604B0BDE8F09F44F480645A
:10024000A9697F1C01988847761E8246002E02DD30
:10025000BAF1300F03D0B9F1000F26D032E0A9690E
:10026000761E44F400747F1C019888478246002E55
:1002700005DDBAF1780F06D0BAF1580F03D0B9F105
:10028000000F10D01EE0B9F1000F02D0B9F1100F2D
:1002900018D1A969761E24F400747F1C0198884740
:1002A0008246102002E0082000E00A20814609E092
:1002B00008FB0908A969761E44F400747F1C0198A4
:1002C00088478246002E05DD4946504600F01AFD5B
:1002D0000028EDDAE96901988847A00502D46FF09B
:1002E0000100A8E7E00725D1600613D5600502D517
:1002F000C8F1000000E0404629680A1D2A6009682C
:10030000220501D5087015E0220701D5088011E00B
:1003100008600FE02868011D29600068210502D5EA
:1003200080F8008006E0210702D5A0F8008001E0F7
:10033000C0F8008038467EE72DE9FF4F087883B08B
:100340009946FF2805D0491C2D2804D00024002000
:1003500008E000200BE00124F9E700EB800003EB4C
:100360004000491C0B78FF2BF7D104B14042002319
:100370000293147819461D462D2C01D02B2C04D144
:10038000521C2D2C13D000240294AA461478FF2C62
:100390000FD00A25A3FB057801FB05814FF0000C67
:1003A00003FB0C11521CE3194AEB0101EEE7012497
:1003B000EAE7814453EA010002D019F5C87F06DA62
:1003C00003980021C0E9001107B0BDE8F08F0025B7
:1003D000AE4E2F46DFF8B882184600F069FDCDE931
:1003E0000001B9F1000002DAC9F1000400E004469E
:1003F0000023A74A1AEB030B42EB045A12E0E00772
:1004000007D02A4633463846414600F0B4FA07463C
:1004100088462A4633461046194600F0ACFA05468F
:100420000E466410002CEAD1DDE90001B9F1000F9D
:100430005A46534606DA00F010FB3A46434600F0AF
:100440000CFB05E000F097FA3A46434600F093FAB9
:10045000029A0AB181F00041039AC2E90001B3E7B0
:100460002DE9FF4F1F468DB0D7E901464FF0FF3809
:100470002E2045464FF000090B90B9696D1C0E986F
:100480008847396A824688470028F6D1BAF1FF3F8B
:100490000AD024F4D064002E11DDBAF12B0F08D05D
:1004A000BAF12D0F0BD102E0404611B08DE744F4B4
:1004B0008064B9696D1C0E9888478246761E69462D
:1004C000600501D52D2000E02B208DF8000001F102
:1004D000010B0DF1200809E0B9696D1C0E988847E1
:1004E00082460F9844F40074761E0560002E02DDEB
:1004F000BAF1300FF0D00B998A453ED144F0800418
:1005000006E00F99681CA9F1010944F40074086021
:10051000B9696D1C761E0E98884782463028F0D047
:100520002BE00B998A4505D1200603D444F08004C2
:10053000761E18E0504604F0A1F808B30DF113013F
:10054000761E44F400748B4508D2AAF130000BF8F3
:10055000010B200607D5A9F1010003E0200602D413
:1005600009F101008146A00502D50F99681C0860B9
:10057000B9696D1C0E9888478246002ED1DC53E085
:10058000002E51DDBAF1650F02D0BAF1450F4BD103
:10059000A00549D5B9696D1C24F44074761E0E98E7
:1005A00088478246002E0CDD2B2804D0BAF12D0F8F
:1005B00007D144F48074B9696D1C0E98884782464F
:1005C000761EE00501D52D2100E02B2108F8011B46
:1005D000CDF82C8021E00DF12901761E44F4007441
:1005E00088450CD2AAF1300010F0FF0088F8000016
:1005F00002D10B99884509D908F1010806E0E00508
:1006000001D5244801E042F20F708146B9696D1CA2
:100610000E98884782460F980560002E04DD5046EC
:1006200004F02CF80028D6D1F9690E988847FF20ED
:100630008BF8000088F800000020069007904B46D9
:100640006A4608A906A8FFF777FEA00502D46FF056
:1006500001002AE714F0240F0AD0E00714D1DDE9E5
:1006600006123868031D3B600068C0E900120BE009
:10067000DDE9060100F0AEFA0146E00704D1386872
:10068000021D3A600068016028460EE70000144031
:100690000000F03FF1D8FFFFF0B480EA0102D40F70
:1006A0004200B2EB410F02D20246084611464A0010
:1006B00042D0C30DDDB2C1F3C752AD1A202D35DAD9
:1006C000C1F3160141F4000204B15242C5F1200603
:1006D00002FA06F12A411044B3EBD05F23D0C4B133
:1006E000012DA0EBC35009DCF0BC4FF0004202EA40
:1006F000C352DBB200F5000000F04FBB400000F138
:10070000807000EBC350A0F1807040EAD1704900C6
:1007100009E0490841EAC071A0EBC35000F50000B0
:10072000400800EBC350F0BC00F02EBB6142012238
:1007300002EB4101001BF6E7F0BC704781F000417D
:10074000AAE780F00040A7E780EA010210B502F0B6
:100750000043400022D04A001FD0010E01EB12617D
:10076000C0F35600C2F3560240F4000042F4000207
:10077000A0FB022000047F39140400D0401C50EA82
:10078000124001D44000491EC2B20C0604EBD01046
:10079000401C4008802A02D003E0002010BD20F059
:1007A0000100002900DA0020184310BD30B480EAAF
:1007B000010202F0004530F0004221F0004013D069
:1007C00090B1C30DD40DC2F31601C0F31600E41AA4
:1007D00041F4000140F400027D34914201D3641CD5
:1007E00000E04900002C02DA30BC002070474FF4D2
:1007F00000000023914201D3891A034340084FEAC5
:100800004101F7D151B1914202D14FF0004105E0D1
:1008100002D24FF0010101E06FF0010103EBC4507F
:10082000284430BC00F0B0BA2DE9FE4F804681EA82
:100830000300C00F0C46009021F0004123F000455A
:10084000B8EB0200A94105D24046214690461C461D
:100850000B46024623F00040104347D0270DC7F354
:100860000A00C3F30A510290401A019040286BDA43
:10087000C3F3130040F4801B0098924620B100237C
:10088000D2EB030A63EB0B0B01985946C0F140020F
:10089000504600F016FA06460D4650465946019A53
:1008A00000F01EFA10EB08006141002487EA1152A3
:1008B00084EAE7731A4340D0009A62B3019A012A8E
:1008C0004FEA075215DC001B61EB02014FF00042BA
:1008D00002EA0752CDE90042001C41F58011324680
:1008E0002B4600F097FA03B0BDE8F08F4046214652
:1008F000F9E7001B61EB0201001C41F580130018B1
:100900005B412018A2F5001747EB030140EAD570C0
:10091000B6196D4111E06D084FEA360645EAC0751B
:100920004FEA0752001B61EB0201001C41F58011E8
:1009300049084FEA30000019514132462B4603B0B6
:10094000BDE8F04F00F057BA0098012240000023A4
:10095000D0EB020263EBE073009821464FEAE074AB
:10096000B8EB000061EB0401E9E783F000435BE7CB
:1009700081F0004158E72DE9FE4F81EA030404F0BD
:10098000004421F0004100944FF0000B23F000439D
:1009900050EA01045ED052EA03045BD0C3F30A5468
:1009A000C1F30A552C44A4F2F3340194A0FB025481
:1009B000C1F3130141F48011C3F3130343F4801313
:1009C00001FB024400FB034E840A970A44EA815467
:1009D00047EA8357A4FB076802958D0A05FB078544
:1009E0004FEA932C04FB0C542705029D4FEA06584E
:1009F00047EA1637B5EB08056EEB070C870E920E2B
:100A000047EA811742EA8312A7FB0201B6EB0B010A
:100A100064EB00042B0D43EA0C335E1844EB1C50CE
:100A2000DA465146E7FB0201C5F313044FEA0B33E4
:100A300043EA14534FEA0432019C43EA0603A4F14B
:100A40000C040294009CCDE900B400F0E3F903B07B
:100A5000BDE8F08F00200146F9E72DE9F04D81EA6D
:100A6000030404F0004B21F0004514464FF0000A47
:100A700023F0004150EA050220D054EA01021DD0C3
:100A8000C5F30A570246C5F31303C1F31300C1F3BC
:100A90000A5640F4801543F48013A7EB0608101B98
:100AA000D64608F2FD3873EB050002D308F10108C1
:100AB00001E092185B41B8F1000F03DA0020014613
:100AC000BDE8F08D00204FF48011064684460EE00C
:100AD000171B73EB050705D3121B63EB05030643D6
:100AE0004CEA010C49084FEA300092185B4150EA89
:100AF0000107EDD152EA030012D082EA040083EA32
:100B00000501084305D0101BAB4106D2012200238A
:100B100006E000224FF0004302E06FF001025310A4
:100B20001AEB06004CEB085110EB0A0041EB0B01ED
:100B3000BDE8F04D00F05FB9C10F80EAE0700844F5
:100B4000CA079623002100F028B9962300221146F7
:100B500000F023B920F00040C10DC0F3160040F4AE
:100B600000007F2901DA00207047962903DCC1F1DB
:100B70009601C840704796398840704700F000429F
:100B800030F000400AD0C10D01F56071C0F31600CD
:100B900042EA0151C2084007114370470020014654
:100BA0007047000030B5041E71F1000404DB4FF003
:100BB0000044404264EB0101141E73F1000405DBA4
:100BC0001C464FF00043524263EB04038B4208BFC4
:100BD000824230BD01F0004330B421F0004150EAC0
:100BE000010206D00A0DA2F56072C1F31301002ABA
:100BF00002DC30BC00207047440F44EAC104C1004D
:100C0000E01830BC00EBC25000F0BEB8002801DB99
:100C1000C0F10040002901DBC1F100418142704771
:100C2000002801DBC0F10040002901DBC1F10041D7
:100C30008842704730B50B4601460020202201242F
:100C400009E021FA02F59D4205D303FA02F5491B9A
:100C500004FA02F52844151EA2F10102F1DC30BDB0
:100C60002DE9F05F0546002092469B4688460646E1
:100C7000814640241BE0284641464746224600F074
:100C800065F953465A46C01A914110D31146184689
:100C9000224600F016F82D1A67EB01084F4622464F
:100CA0000120002100F00DF817EB00094E41201E35
:100CB000A4F10104DFDC484631462A464346BDE83C
:100CC000F09F202A04DB203A00FA02F1002070474E
:100CD0009140C2F1200320FA03F31943904070477A
:100CE000202A06DBCB17203A41FA02F043EAE073F0
:100CF00006E041FA02F3D040C2F1200291400843DD
:100D0000194670473A2800D2303820F02002412A94
:100D100001D3A2F13700884201D34FF0FF30704772
:100D2000026811441378016018467047D160044985
:100D300051610449116200211161114600F01CB992
:100D4000210D00086D0F0008426842B1016811F8DA
:100D5000013B23B1521EC0E9001218467047012121
:100D6000C160881E704742685AB1C368016843B9C0
:100D700083688B4205D0491E521CC0E90012002036
:100D800070474FF0FF3070470029A8BF7047401CE4
:100D9000490008BF20F00100704710B4B0FA80FC91
:100DA00000FA0CF050EA010404BF10BC704749B1CE
:100DB000CCF1200421FA04F411FA0CF118BF01213E
:100DC00021430843A3EB0C01CB1D4FEA00614FEA1E
:100DD000102042BF002010BC704700EBC3501044ED
:100DE0000029A4BF10BC7047401C490008BF20F078
:100DF000010010BC704710B5141E73F1000408DA2E
:100E0000401C41F1000192185B411A4301D120F0CE
:100E1000010010BD2DE9F04D92469B4611B1B1FA8B
:100E200081F202E0B0FA80F220329046FFF749FFEB
:100E300004460F4640EA0A0041EA0B0153465A466F
:100E4000084313D0114653EA010019D0C8F14002FB
:100E5000504600F07BF805460E465046594642463D
:100E6000FFF72FFF084305D0012004E02046394654
:100E7000BDE8F08D0020054346EAE0762C43374379
:100E80000A986305E40AA0EB08000022FD0A44EA80
:100E900047540A3002D500200146E9E70105101940
:100EA0006941DDE9084500196941BDE8F04DA2E757
:100EB0000EB540F2334202920022CDE900221346E1
:100EC000FFF7A8FF03B000BDC1F30A52C1F313013D
:100ED00040F2FF3341F480119A4202DA00200146C9
:100EE000704740F233439A42A2F2334202DC52424C
:100EF00000F02CB8FFF7E5BE30B5041E71F1000418
:100F000004DB4FF00044404264EB0101141E73F116
:100F1000000405DB1C464FF00043524263EB040320
:100F2000994208BF904230BD064C074D06E0E0688C
:100F300040F0010394E8070098471034AC42F6D320
:100F4000FFF7FAF8A4710008C4710008202A04DB36
:100F5000203A21FA02F00021704721FA02F3D04032
:100F6000C2F120029140084319467047C0B24FF4C5
:100F7000F05100F099B900002DE9F34F8BB04FF01C
:100F8000000801F10C000C464FF0010B46460DF134
:100F9000080A01906269012101989047051E2DD031
:100FA000252D2CD0216A8847C0B1626901210198A2
:100FB0009047216A88470028F7D1411E626901984D
:100FC000904700E0761CA1690B988847216A884702
:100FD0000028F7D1E1690B988847DBE7A1690B98F6
:100FE00088470746A84201D1761CD3E7E1690B98F0
:100FF00088477F1C02D1B8F1000F6FD047E100276E
:1010000062693D463946019890472A2804D16269B1
:101010000121019890470125DFF88892626901213A
:1010200001989047A0F130010A290AD24F45E5DC2A
:1010300007EB870100EB4107303FDFD445F0100597
:10104000ECE7E90601D46FF000476C280AD04C2881
:1010500014D0682815D06A280DD074281CD07A289E
:101060001AD01DE062690121019890476C2802D0D6
:1010700045F0040514E045F002050DE045F02005BB
:101080000AE06269012101989047682802D045F082
:10109000080505E045F40065626901210198904763
:1010A000C4E9015765283DD019DC58287AD00CDCFA
:1010B000452837D004DC252826D0412831D131E01D
:1010C00046282FD047282CD12CE05B2877D06128E8
:1010D00028D063287CD0642823D15AE0D1E06F283F
:1010E00048D008DC66281DD067281BD0692821D08D
:1010F0006E2816D127E0702845D0732868D075284F
:1011000047D078280DD14DE0A1690B988847054656
:1011100025283FF469AFE1690B9888476D1C3FF4BF
:101120006AAFB4E023466A466FF001000B99FFF7FF
:1011300097F99FE045F040006060A80723464FF014
:10114000000236D43EE0E8077FF447AF2068011D77
:1011500021600068290501D506701BE7290701D524
:10116000068017E7A90703D5F117C0E9006111E769
:1011700006600FE745F040006060A80723464FF087
:10118000080216D41EE040F60E0125EA0100606058
:1011900016E045F040006060A80723464FF00A02C1
:1011A00007D40FE045F040006060A80708D523464B
:1011B00010226FF001000B99AFF300805AE007E0B6
:1011C000234610226FF001000B99FFF70FF851E052
:1011D0004FF000094F464B46632802D05B2807D0EA
:1011E00041E02079C00601D40120A06001273AE047
:1011F00062690121019890475E2805D14FF00109ED
:101200006269494601989047216939B900210A4627
:10121000534643F82120491C0829FADBB0B3216961
:1012200069B9C11700EBD16253110AEB830122F0B7
:101230001F02821A01200B68904003430B60626911
:101240000121019890475D28E8D1B9F1000F09D03C
:101250000020514651F82020D24341F82020401C64
:101260000828F7DB02AB224600976FF001000B99CC
:10127000AFF3008000280CDA401C08D1BBF1000F4E
:1012800005D04FF0FF300DB0BDE8F08FFFE74046CE
:10129000F9E7E90701D108F1010806444FF0000B16
:1012A00078E60000CCCCCC0C7F2801D9002208E0E5
:1012B000064A02EB5002C007127800D1120902F070
:1012C0000F0201209040084070470000587000084D
:1012D00070B500241DE0E1B2032002F03BFE0225C0
:1012E00000BF0020104908700321342002F048FE9E
:1012F000052000F043F90C48007830B121460BA0DE
:1013000003F0AAF802F068F870BD6D1E002DE8D158
:10131000641C7F2CDFDB0BA003F09EF80FA003F012
:101320009BF800BFF0E700006800002066696E646B
:10133000202530325820616464722073656E736FAB
:10134000720D0A0063616E206E6F742066696E64B0
:101350002073656E736F720D0A000000706C65611A
:10136000736520636865636B20796F757220636FA6
:101370006E6E656374696F6E0D0A000000BFFEE754
:1013800003468B4203DB934201DC012070470020BF
:10139000FCE7000010B52A48007865281ED008DC5C
:1013A000422832D0552828D0612809D062283FD160
:1013B00033E0682839D06D2809D0752838D114E079
:1013C00002F034FF10B11FA003F046F831E002F044
:1013D00055FF10B121A003F03FF82AE002F076FF9C
:1013E00010B124A003F038F823E0062002F0BAFE82
:1013F00010B126A003F030F81BE0002002F0B2FE8E
:1014000010B122A003F028F813E0062002F0DCFE61
:1014100010B124A003F020F80BE0022002F0D4FE6B
:1014200010B120A003F018F803E001F0D5FF00E0B0
:1014300010BD00BFFF200249087000BFF8E70000A0
:10144000690000200D0A5365742041636343616C99
:1014500069204572726F720D0A0000000D0A537404
:10146000617274204D616743616C69204572726FCF
:10147000720D0A000D0A456E64204D616743616C70
:1014800069204572726F720D0A0000000D0A5365E3
:10149000742042616E647769647468204572726F6B
:1014A000720D0A000D0A536574204261756420456F
:1014B00072726F720D0A000010B500222EE03628FD
:1014C00006D039280BD03C2810D03F281CD114E07E
:1014D000144B1B7843F00103124C23701BE0114B9B
:1014E0001B7843F002030F4C237014E00D4B1B7864
:1014F00043F008030B4C23700DE00A4B1B7843F0BC
:101500000403084C237006E0064B1B7843F080036D
:10151000044C237000BF00BF401C521C8A42CED333
:1015200010BD0000680000207047C10000BF0A1E07
:10153000A1F10101FBD1704710B56FF0040001F07B
:10154000F3FF0A4800680A49B0FBF1F00949087046
:101550000846007800EB4001C1EBC0104FF6FF7168
:1015600001EAC0000449088010BD0000000000200E
:1015700000127A00280000202A0000200146114AAB
:1015800012884A434FF0E0235A6100229A611A46BA
:10159000126942F001021A6100BF4FF0E0221069A7
:1015A00000F001021AB100F48032002AF5D04FF0A9
:1015B000E022126922F001024FF0E0231A610022BA
:1015C0009A6170472A0000200146114A12784A4366
:1015D0004FF0E0235A6100229A611A46126942F0E4
:1015E00001021A6100BF4FF0E022106900F0010211
:1015F0001AB100F48032002AF5D04FF0E0221269CF
:1016000022F001024FF0E0231A6100229A61704734
:101610002800002010B504462046FFF7AFFF10BD9C
:1016200010B50A20FFF7AAFF0121094800F0D5FAFA
:10163000012809D1074800780749887007480078D1
:10164000087007A002F008FF012000F0F3F810BDB9
:10165000000801402D0000206F0000202C00002019
:1016600067616D652077616B652075700D0A0000FC
:1016700010B50A20FFF782FF08210C4800F0ADFAF0
:1016800001280FD10A4800780A4988700A48007872
:1016900008700AA002F0E0FE012300220321184690
:1016A00001F006FB082000F0C5F810BD001801404D
:1016B0002D0000206F0000202C00002067616D6568
:1016C0002077616B652075700D0A000010B50A2047
:1016D000FFF754FF10211B4800F07FFA01282DD19D
:1016E00019480078401C18490870084600780228FC
:1016F00006D10020087015480078401C1349087076
:1017000012480078072802D100201049087001F023
:101710008DF901230D4802781946184601F0C8FAE0
:101720000123094802781946022001F0C1FA06484F
:1017300002780648017806A002F08EFE102000F024
:1017400079F810BD001801402D0000202C00002069
:10175000726F756E643D25642C646972656374698B
:101760006F6E3D25640D0A000EB50121084601F09B
:1017700033FB0321042000F085F9082001900120AB
:101780008DF80A0000208DF8080008208DF8090067
:1017900001A800F055F80421084600F073F9102064
:1017A000019000208DF8080008208DF80900012024
:1017B0008DF80A0001A800F043F80021084600F067
:1017C00061F9012001908DF80A0008208DF80900C8
:1017D00001A800F035F84FF4A06001F01DF90620D3
:1017E0008DF8000000208DF801008DF80200012026
:1017F0008DF80300684601F0D7F809208DF8000045
:1018000000208DF801008DF8020001208DF8030002
:10181000684601F0C9F80A208DF8000000208DF814
:10182000010001208DF802008DF80300684601F0E8
:10183000BBF80EBD01490860704700001404014068
:10184000002123498279002A3AD00A4612680368A7
:101850009A430B461A600A1D126803689A430B1DCF
:101860001A60027911440A6803681A430A60184A28
:101870000832126803689A43154B08331A601A1D20
:10188000126803689A43124B0C331A604279102A8B
:101890000ED11A1F126803681A430D4B08331A60E1
:1018A0001A1D126803681A43094B0C331A600DE0C5
:1018B0000749427911440A6803681A430A6005E03F
:1018C000027911440A6803689A430A60704700006D
:1018D0000004014010B50446607E01281BD1207E23
:1018E00018B90D4802F068F803E00C4804F0CCFC8D
:1018F00000BF00BF207E012805D1227C524250B299
:101900006169884703E094F91000616988472046BF
:1019100000F058F8207410BD5C050020C4020020BF
:1019200010B50446002060760021024801F00CFF4B
:1019300010BD00000004004010B504460120607690
:101940000121024801F000FF10BD0000000400402A
:101950000021016041608160C16001744161012129
:1019600001760021417670470160027600230374FE
:1019700032B1012A09D0022A0CD0032A15D10EE077
:101980000B4B43610B4BC36010E00B4B43610B4BA4
:10199000C3600BE00A4B4361084BC36006E0044B95
:1019A0004361064B1B1DC36000E000BF00BF7047D2
:1019B00079290008A4050020F5240008C4020020AD
:1019C0001129000810B50446E26811682068FEF786
:1019D000B5FEA060A0681149FFF722F90CD8A068F5
:1019E0000F49FFF713F907D82046FFF799FF0D4875
:1019F00000F0B7FF002010BDA0680021FFF710F92C
:101A000001D80A20F7E7A0680021FFF7FFF802D20B
:101A10006FF00900EFE70020EDE70000000040C094
:101A2000000040407402002010B50446A07948B17F
:101A3000012802D002280FD109E094F9070000F034
:101A400059FD0AE094F9070000F096FF05E094F9CB
:101A5000070000F05DFF00E000BF00BF0120207024
:101A600010BD002101700121817100214180818020
:101A7000C171704710B5029C418082808371C4712E
:101A800010BD000030B500228B071C0F0F2303FA96
:101A900004F20B4B8C1053F824309343084C8D10F8
:101AA00044F8253023468C1053F824308C07240F3B
:101AB00000FA04F42343024C8D1044F8253030BD65
:101AC000080001402DE9F0410246002500260020D3
:101AD00000230024002791F803C00CF00F0591F8B3
:101AE00003C00CF0100CBCF1000F03D091F802C041
:101AF0004CEA050591F800C0BCF1000F31D0146824
:101B000000202BE04FF0010C0CFA00F3B1F800C0FC
:101B10000CEA03069E4220D183004FF00F0C0CFA12
:101B200003F7BC4305FA03FC4CEA040491F803C034
:101B3000BCF1280F06D14FF0010C0CFA00FCC2F8E2
:101B400014C00AE091F803C0BCF1480F05D14FF072
:101B5000010C0CFA00FCC2F810C0401C0828D1D3BC
:101B60001460B1F800C0BCF1FF0F34DD54680020F0
:101B70002EE000F1080C4FF0010808FA0CF3B1F860
:101B800000C00CEA03069E4221D183004FF00F0CE7
:101B90000CFA03F7BC4305FA03FC4CEA040491F881
:101BA00003C0BCF1280F05D100F1080C08FA0CF8AD
:101BB000C2F8148091F803C0BCF1480F07D100F1BE
:101BC000080C4FF0010808FA0CF8C2F81080401C0D
:101BD0000828CED35460BDE8F08102460020936807
:101BE0000B400BB1012000E00020704741617047BD
:101BF000016170470AB1016100E04161704700BFB7
:101C0000FEE7000000B500200F4908600F4800689B
:101C100020F470600D4908600846006840F4407088
:101C2000086000200A49C1F888010520FFF77DFC03
:101C30000120054908600520FFF777FC00200449D2
:101C4000C1F8840100BD000084812142000C0140E4
:101C50000080214200B500200F4908600F4800684D
:101C600020F470600D4908600846006840F4407038
:101C7000086001200A49C1F888010520FFF755FCDA
:101C80000120054908600520FFF74FFC00200449AA
:101C9000C1F8840100BD000084812142000C014094
:101CA0000080214270B5054600241748006820F4E2
:101CB0007060154908600846006840F400600860DC
:101CC000002616E00020114908600520FFF72DFCD2
:101CD00001200F49C1F884016006040E0B487C38CE
:101CE000006808B1601CC4B20520FFF71EFC701C20
:101CF000C6B2082EE6DB15B1FFF784FF01E0FFF75F
:101D0000A9FF204670BD0000000C014084812142E3
:101D10000080214230B504461548006820F4706008
:101D2000134908600846006840F4407008600020CD
:101D300010490860002517E0E0090E49091D0860F8
:101D40006006040E0220FFF7F0FB01200A49C1F8EB
:101D500084010520FFF7E9FB002006490860032005
:101D6000FFF7E3FB681CC5B2082DE5DB30BD0000C2
:101D7000000C0140848121420080214200B50F48BF
:101D8000006820F470600D4908600846006840F45F
:101D90004070086001200A4908600A49C1F88401BE
:101DA0000520FFF7C2FB0020054908600520FFF76A
:101DB000BCFB00200349C1F8840100BD000C0140B8
:101DC000888121420080214200B50F48006820F43C
:101DD00070600D4908600846006840F44070086073
:101DE00000200A4908600A49C1F888010520FFF768
:101DF0009CFB0120054908600549C1F888010520C0
:101E0000FFF793FB00BD0000000C014084812142DC
:101E10000080214210B500241748006820F470604B
:101E2000154908600846006840F400600860012019
:101E3000124908600520FFF778FB0AE0601CC4B275
:101E4000322C03DDFFF7C0FF012010BD0520FFF796
:101E50006CFB0A48803800680028EFD10120074950
:101E6000091F08600520FFF760FB00200449C1F846
:101E7000840100BFE9E70000000C01408881214295
:101E8000008021422DE9F0410746884615461E464E
:101E90000024FFF773FF3846FFF73CFFFFF7BAFF58
:101EA000012802D10020BDE8F0814046FFF732FF53
:101EB000FFF7B0FF012801D10020F4E7FFF75EFF34
:101EC000791CC8B2FFF726FFFFF7A4FF012801D154
:101ED0000020E8E700240CE0701EA04204D001209E
:101EE000FFF7E0FE285503E00020FFF7DBFE285552
:101EF000641CB442F0D3FFF767FF0120D3E72DE95C
:101F0000F04180460D4616461F460024FFF736FF77
:101F10004046FFF7FFFEFFF77DFF012802D10020BA
:101F2000BDE8F0812846FFF7F5FEFFF773FF0128B3
:101F300001D10020F4E7002409E0305DFFF7EAFE5C
:101F4000FFF768FF012801D10020E9E7641CBC42CB
:101F5000F3D3FFF739FF0120E2E7000010B50020BE
:101F60000A49086000F0DAF800200949C1F8B00118
:101F70000220FFF729FB0120044908600220FFF737
:101F800023FB00200249C1F8A80110BDA80123428B
:101F90000000234208B50121402000F01DFF4FF44E
:101FA000A050ADF8000010208DF8030003208DF83C
:101FB000020069460448FFF785FD4FF4A05102482E
:101FC000FFF716FE08BD00000018014010B5002004
:101FD0000A49086000F0A2F801200949C1F8B001DF
:101FE0000220FFF7F1FA0120044908600220FFF700
:101FF000EBFA00200249C1F8A80110BDA801234254
:102000000000234270B505460026002400F070F859
:1020100000BF16E00020104908600220FFF7D4FA44
:1020200001200E49C1F8A8016006040E0A4878385C
:10203000006808B1601CC4B20120FFF7C5FA701C2B
:10204000C6B2082EE6DB15B9FFF7C0FF01E0FFF7C7
:1020500085FF204670BD0000A801234200002342F6
:102060002DE9F0410546884616461F4600F0CEF899
:10207000002141EA4501C8B200F066F800F0FCF822
:10208000012804D100F0DEF80120BDE8F0814046CF
:1020900000F05AF800F0F0F8012803D100F0D2F86F
:1020A0000120F2E700F0B2F8012101EB4501C8B2CE
:1020B00000F04AF800F0E0F8012803D100F0C2F87F
:1020C0000120E2E700240DE0781EA04204D00120A8
:1020D000FFF798FF305503E00020FFF793FF3055DE
:1020E000601CC4B2BC42EFDB00F0ACF80020CCE7CF
:1020F00008B50121402000F06FFE4FF48050ADF88C
:10210000000003208DF8020048208DF80300694686
:102110000148FFF7D7FC08BD0018014008B50121B0
:10212000402000F059FE4FF48050ADF8000003202D
:102130008DF8020010208DF8030069460148FFF772
:10214000C1FC08BD0018014070B504460025FFF72A
:10215000E5FF00200F49086000BF17E0E0090D49C6
:10216000083108606006040E0220FFF72DFA0120F6
:102170000949C1F8A8010220FFF726FA0020054905
:1021800008600220FFF720FA681CC5B2082DE5DBC5
:1021900070BD0000A8012342000023422DE9F04158
:1021A00005460E461746984600F030F8002141EAF1
:1021B0004501C8B2FFF7C8FF00F05EF8012804D15E
:1021C00000F040F80120BDE8F0813046FFF7BCFF89
:1021D00000F052F8012803D100F034F80120F2E7B2
:1021E00000240CE0385DFFF7AFFF00F045F8012850
:1021F00003D100F027F80120E5E7601CC4B2444594
:10220000F0DB00F01FF80020DDE7000010B5FFF75D
:1022100085FF0120094908600949C1F8A801052086
:10222000FFF7D2F90020054908600520FFF7CCF937
:1022300000200349C1F8A80110BD0000B0012342ED
:102240000000234210B5FFF769FF0020084908602D
:102250000849C1F8B0010520FFF7B6F9012004498B
:1022600008600449C1F8B0010520FFF7ADF910BDC1
:10227000A80123420000234210B50024FFF738FFD5
:1022800001200E490860FFF79FF901200C49C1F8B1
:10229000A801FFF799F907E0601CC4B2FA2C03DD2E
:1022A000FFF7D0FF012010BD0448803800680028E7
:1022B000F2D102490839086000BFF4E7B0012342B7
:1022C000000023422DE9F041044600250C21342072
:1022D00001F056FE4FF4FA70FFF750F9FFF75AF885
:1022E0004748007800287DD000BF3CE005F134016C
:1022F000444A32F91100FEF71FFC07464FF08E41A9
:10230000FEF754FA06464FF08341FEF71DFA44F8F3
:10231000250005F137013B4A32F91100FEF70CFCAC
:1023200007464FF08E41FEF741FA06463649FEF762
:102330000BFA04F10C0141F8250005F13D01314A89
:1023400032F91100FEF7F8FB07464FF08E41FEF719
:102350002DFA06462D49FEF7F7F904F1180141F868
:102360002500681CC5B2032DC0DBA16A206AFEF7F8
:10237000E5F9606204E0606A2549FEF7DFF9606212
:10238000606A2249FEF74CFCF5D304E0606A2049FC
:10239000FEF782F96062606A1E49FEF737FCF5D3EA
:1023A0001748007800F0010028B11548007820F0A7
:1023B0000100134908701248007800F0020028B1AB
:1023C0000F48007820F002000D4908700C48007892
:1023D00000F0040028B10A48007820F00400084901
:1023E000087000E00AE00648007800F0080028B114
:1023F0000348007820F0080001490870BDE8F0812A
:1024000068000020DC0300200000FA440000344390
:102410000000B443000034C370B5044600255021C9
:10242000032001F097FD1449144801F07FFD144882
:1024300001F08CFE134801F06DFDFEF749FF4FF4EB
:10244000FA70FFF79BF800BF0BE0002044F825006E
:10245000002104F1180040F825100020E060681CFD
:10246000C5B2032DF1DB0020A06260622046FFF7B9
:1024700029FF606AA06270BD851E0008FF1E00086B
:10248000B91400081516000808B50121442000F011
:10249000A3FC1820ADF8000028208DF80300694641
:1024A0000648FFF70FFB0120ADF8000028208DF84B
:1024B000030069460248FFF705FB08BD001801400C
:1024C0000008014000BFFEE70146002000BF0EE00B
:1024D00001F1180252F82030103242F82030203A30
:1024E00052F82030103242F82030421CD0B204287A
:1024F000EEDB704738B50446002C0CDD604240B27C
:102500000090C4F1FF3041B2601C43B2224608483B
:1025100000F00EFA0AE0604240B20090601E43B242
:1025200042B2604241B2024800F002FA38BD0000F7
:10253000740200207CB50546032001900020009025
:10254000C820FFF71BF8042301AA03213420FFF75A
:1025500025FE0520FFF712F801236A4615213420D5
:10256000FFF71CFE0520FFF709F800240020288053
:1025700000BF04E00021A81C0155601CC4B2032C5C
:10258000F8DB00240EE0002105F1080040F82410DB
:10259000103040F82410103040F82410103001554D
:1025A000601CC4B2042CEEDB7CBD000070B5064696
:1025B000304600F029F80446002500BF08E06420FA
:1025C000FFF702F8304600F01FF80446681CC5B259
:1025D000052D01DA012CF2D09CB1002000F0DAFBCD
:1025E0004FF47A70FEF7CAFF012000F0D3FB012000
:1025F000FEF7C4FF0348FFF79DFF4FF4FA70FEF7A4
:10260000BDFF70BD740200207FB50546002400BFE9
:102610000EE005F1180050F82410103840F824108E
:10262000203050F82410103840F82410601CC4B238
:10263000042CEEDB102305F128023C213420FFF7A7
:102640000FFD0020009001900290039000260024CE
:102650000BE005F1280050F82410103850F8240041
:10266000081A4DF82400601CC4B2042CF1DBE86A9F
:10267000401C70B9286B401C58B9686B401C40B9AD
:102680002846FFF721FF7BA001F0E6FE022004B000
:1026900070BD009800282CDB0198002829DB0298E7
:1026A000002826DB0398002823DBDDE90012114413
:1026B000029A1144039A8818C11700EB91718E1089
:1026C000002413E05DF82410881B002801DB01467C
:1026D00000E041421E2907DD2846FFF7F5FE69A00C
:1026E00001F0BAFE0120D2E70020D0E7042CE9DB9C
:1026F000BBE0009800282CDC0198002829DC029817
:10270000002826DC0398002823DCDDE900121144B0
:10271000029A1144039A8818C11700EB91718E1028
:10272000002413E05DF82410881B002801DB01461B
:1027300000E041421E2907DD2846FFF7C5FE55A0EF
:1027400001F08AFE0120A2E70020A0E7042CE9DBCB
:102750008BE0009800281FDC019800281CDB029801
:10276000002819DB0398002816DCDDE9001211446B
:10277000029A1144039A8818C11700EB91718E10C8
:10278000072E07DD2846FFF79FFE46A001F064FEF6
:1027900001207CE700207AE7009800281FDB0198E1
:1027A00000281CDC0298002819DC0398002816DB9E
:1027B000DDE900121144029A1144039A8818C117E6
:1027C00000EB91718E10072E07DD2846FFF77CFE87
:1027D00038A001F041FE012059E7002057E700989A
:1027E00000281FDB019800281CDB0298002819DC58
:1027F0000398002816DCDDE900121144029A114406
:10280000039A8818C11700EB91718E10072E07DD0F
:102810002846FFF759FE2BA001F01EFE012036E7E7
:10282000002034E7009800281FDC019800281CDCF9
:102830000298002819DB0398002816DBDDE9001256
:102840001144029A1144039A8818C11700EB917140
:102850008E10072E07DD2846FFF736FE1DA001F07B
:10286000FBFD012013E7002011E71EA001F0F4FD9D
:1028700001200CE74D4F544F52204552524F5237D2
:102880000D0A00004D4F544F52204552524F5230C6
:102890000D0A00004D4F544F52204552524F5231B5
:1028A0000D0A00004D4F544F52204552524F5232A4
:1028B0000D0A00004D4F544F52204552524F523393
:1028C0000D0A00004D4F544F52204552524F523482
:1028D0000D0A00004D4F544F52204552524F523571
:1028E0000D0A00004D4F544F52204552524F523660
:1028F0000D0A000010B504460223A21C002134205A
:10290000FFF7AEFBA178E07801EB0020208010BD3E
:1029100038B50446604240B223460090604242B25D
:102920002146024800F004F838BD0000740200207F
:102930002DE9F04104460D4616461F46DDF8188085
:1029400084F83850392006553A20075584F83B80E2
:10295000042304F1380233213420FFF71FFCBDE8C3
:10296000F08138B504460020034602460146009037
:102970002046FFF7DDFF38BD38B50446002C07DDE3
:1029800023462246214606480094FFF7D1FF06E081
:1029900023462246214602480094FFF7C9FF38BD6E
:1029A000740200207047000070B5002100230F2240
:1029B000C47804B3154C246804F4E064C4F5E064FE
:1029C000210AC1F10403CA40447804FA03F184786F
:1029D0001440214309010E4C0678A155047804F0F7
:1029E0001F050124AC4005786D11AD0005F1E0250F
:1029F000C5F8004109E0047804F01F050124AC404B
:102A0000044D0678761145F8264070BD0CED00E0C7
:102A100000E400E080E100E002490143024A116065
:102A2000704700000000FA050CED00E070B50024CE
:102A30000EE00021204600F0F0F8002504E0002020
:102A400000F07CF9681CC5B2802DF8DB601CC4B2B4
:102A5000082CEEDB70BD000008B50121082000F055
:102A6000BBF914208DF8030003208DF802004FF409
:102A70008070ADF8000069460A48FFF723F84FF46C
:102A80000070ADF8000069460648FFF71BF8012208
:102A900011020448FFF7AEF8012251020148FFF786
:102AA000A9F808BD000C014070B50546002415E0EA
:102AB0008020204100EA05024FF400710E48FFF724
:102AC00099F8012211020C48FFF794F800224FF404
:102AD00080710948FFF78EF8601CC4B2082CE7DB50
:102AE000012211020448FFF785F800224FF480719B
:102AF0000148FFF77FF870BD000C014010B50122BE
:102B000051020A48FFF776F8012211020748FFF741
:102B100071F800224FF400710448FFF76BF80022AF
:102B20004FF480710148FFF765F810BD000C0140BB
:102B300010B500224FF400710648FFF75BF8012240
:102B400011020448FFF756F8012251020148FFF72D
:102B500051F810BD000C014070B5002406E00025BE
:102B600000E06D1CB5F57A7FFBD3641CB4F57A7F69
:102B7000F5D3FFF771FFAE2000F0D0F8D52000F0BC
:102B8000CDF8802000F0CAF8A82000F0C7F83F2058
:102B900000F0C4F8D32000F0C1F8002000F0BEF827
:102BA000402000F0BBF8A12000F0B8F8C82000F0E9
:102BB000B5F8DA2000F0B2F8122000F0AFF881206A
:102BC00000F0ACF8CF2000F0A9F8D92000F0A6F86A
:102BD000F12000F0A3F8DB2000F0A0F8302000F096
:102BE0009DF8A42000F09AF8A62000F097F88D2018
:102BF00000F094F8142000F091F8AF2000F08EF867
:102C0000FFF714FF70BD10B50246012000E05043ED
:102C10000B1EA1F10101FAD110BD70B505460C469D
:102C200045F0B00000F07AF8102141EA141000F0ED
:102C300075F804F00F0000F071F870BD2DE9F04157
:102C400005460E461746721ED206110E6A1E520621
:102C5000100EFFF7E2FF002409E0A7F12001134A5C
:102C600002EB0111085D00F069F8601CC4B2082C89
:102C7000F3DB721ED206110E6A1E012303EB420221
:102C8000D0B2FFF7CAFF00240BE0A7F12001074AEA
:102C900002EB011204F10801505C00F04FF8601CD7
:102CA000C4B2082CF1DBBDE8F0810000686A0008BE
:102CB0002DE9F04780460E4617461D46002415E0D4
:102CC000281B411E0A20FFF79EFFB7FBF0F00A21E8
:102CD000B0FBF1F201FB120000F130093019C1B272
:102CE0004A464046FFF7AAFF601CC4B2AC42E7DB8D
:102CF000BDE8F0872DE9F04107460E461546002451
:102D000007E02A5D3019C1B23846FFF797FF601C13
:102D1000C4B2285D0028F4D1BDE8F08110B50446A6
:102D2000FFF7ECFE7820FFF7BFFE0020FFF7BCFEA8
:102D30002046FFF7B9FEFFF7FBFE10BD10B50446B5
:102D4000FFF7DCFE7820FFF7AFFE4020FFF7ACFE78
:102D50002046FFF7A9FEFFF7EBFE10BD704700000D
:102D600008B50121042000F037F82020ADF800005C
:102D700010208DF8030003208DF8020069460448F6
:102D8000FEF7A0FE20210248FEF730FF08BD00003C
:102D90000008014010B50446012C04D1202105484B
:102DA000FEF726FF04E020210248FEF71FFF00BFC8
:102DB00000BF10BD0008014029B1064AD269024394
:102DC000044BDA6104E0034AD2698243014BDA61C1
:102DD000704700000010024029B1064A9269024380
:102DE000044B9A6104E0034A92698243014B9A6161
:102DF000704700000010024030B50021002200247E
:102E000000232D4D6D6805F00C0121B1042905D07A
:102E1000082923D105E0294D056022E0274D0560F2
:102E20001FE0254D6D6805F47012234D6D6805F4A3
:102E30008034022505EB92421CB9214D55430560B3
:102E40000BE01D4D6D6805F400351DB11C4D55435B
:102E5000056002E0194D5543056002E0174D05601D
:102E600000BF00BF144D6D6805F0F0010909154D54
:102E70006B5C0568DD4045600F4D6D6805F4E061F1
:102E8000090A104D6B5C4568DD4085600A4D6D6830
:102E900005F46051C90A0B4D6B5C4568DD40C560A7
:102EA000054D6D6805F44041890B074D6B5CC568A5
:102EB000B5FBF3F5056130BD0010024000127A0049
:102EC00000093D00140000202400002070472DE977
:102ED000F04107460D461646002405E0295D3846B8
:102EE00000F006F8601C84B2B442F7DBBDE8F08164
:102EF00070B504460D462946204601F004F800BF8F
:102F00008021204600F031FF0028F9D070BD70B557
:102F100006460C46002505E0615D3046FFF7E8FFF8
:102F2000681CC5B2605D0028F6D170BD10B586B0D2
:102F300004460121C804FFF73FFF01211020FFF7DD
:102F40004BFF18208DF817004FF48060ADF8140087
:102F500003208DF8160005A92048FEF7B3FD482090
:102F60008DF817004FF40060ADF8140003208DF8C1
:102F7000160005A91948FEF7A5FD01940020ADF83B
:102F800010000C20ADF80E000020ADF80C00ADF8DC
:102F90000A00ADF8080001A9114800F043FF012222
:102FA00040F225510E4800F017FF4FF4A060FFF7E4
:102FB00033FD34208DF8000001208DF803008DF8DA
:102FC000010002208DF802006846FFF7EDFC0121A8
:102FD000034800F0BEFE06B010BD00000010014026
:102FE000004C004010B586B0044601210805FFF7EB
:102FF000E3FE01213020FFF7EFFE18208DF81700C7
:103000004FF48050ADF8140003208DF8160005A988
:103010002048FEF757FD48208DF817000420ADF832
:10302000140003208DF8160005A91B48FEF74AFD81
:1030300001940020ADF810000C20ADF80E00002027
:10304000ADF80C00ADF80A00ADF8080001A913486E
:1030500000F0E8FE012240F22551104800F0BCFECD
:103060004FF4A060FFF7D8FC35208DF80000012058
:103070008DF8030002208DF8010000208DF8020079
:103080006846FFF791FC0121044800F062FE06B09B
:1030900010BD00000010014000140140005000402D
:1030A00010B586B0044601218803FFF795FE012183
:1030B0000420FFF791FE18208DF817004FF40070E0
:1030C000ADF8140003208DF8160005A92048FEF77E
:1030D000F9FC48208DF817004FF48060ADF814001B
:1030E00003208DF8160005A91948FEF7EBFC0194A2
:1030F0000020ADF810000C20ADF80E000020ADF857
:103100000C00ADF80A00ADF8080001A9114800F064
:1031100089FE012240F225510E4800F05DFE4FF479
:10312000A060FFF779FC25208DF8000001208DF8C4
:10313000030000208DF801008DF802006846FFF7BB
:1031400033FC0121034800F004FE06B010BD00006E
:10315000000801400038014010B586B00446012146
:103160004804FFF729FE01210420FFF735FE18204F
:103170008DF817000420ADF8140003208DF8160018
:1031800005A92048FEF79EFC48208DF8170008206E
:10319000ADF8140003208DF8160005A91948FEF7B4
:1031A00091FC01940020ADF810000C20ADF80E0049
:1031B0000020ADF80C00ADF80A00ADF8080001A938
:1031C000114800F02FFE012240F225510E4800F078
:1031D00003FE4FF4A060FFF71FFC26208DF80000CF
:1031E00001208DF8030000208DF8010001208DF8EA
:1031F00002006846FFF7D8FB0121034800F0A9FD53
:1032000006B010BD000801400044004010B586B073
:10321000044601218804FFF7CFFD01210820FFF7B4
:10322000DBFD18208DF817004FF48060ADF8140016
:1032300003208DF8160005A92048FEF743FC48201E
:103240008DF817004FF40060ADF8140003208DF8DE
:10325000160005A91948FEF735FC01940020ADF8C9
:1032600010000C20ADF80E000020ADF80C00ADF8F9
:103270000A00ADF8080001A9114800F0D3FD0122B1
:1032800040F225510E4800F0A7FD4FF4A060FFF773
:10329000C3FB27208DF8000001208DF803000220D9
:1032A0008DF8010001208DF802006846FFF77CFBD5
:1032B0000121034800F04DFD06B010BD000C014097
:1032C0000048004010B54FF4E130FFF7E9FE4FF43D
:1032D000E130FFF741FF4FF41650FFF797FF4FF42F
:1032E000E120FFF723FE4FF4E130FFF77BFE10BD36
:1032F00010B500F001F810BD0CB500200190009051
:103300003348006840F480303149086000BF3048DD
:10331000006800F4003000900198401C0190009873
:1033200018B90198B0F5A06FF1D12948006800F4F0
:10333000003010B10120009001E0002000900098C2
:10334000012843D12348006840F01000214908605B
:103350000846006820F0030008600846006840F056
:10336000020008601A4840681949486008464068E9
:1033700048600846406840F48060486008464068FD
:1033800020F47C1048600846406840F4E81048602B
:103390000846006840F08070086000BF0C48006874
:1033A00000F000700028F9D00948406820F00300C0
:1033B000074948600846406840F00200486000BF86
:1033C0000348406800F00C000828F9D10CBD00004B
:1033D000001002400020024010B50E4801F03CF8F9
:1033E0000DA001F039F8184801F036F817A001F0E7
:1033F00033F820A001F030F829A001F02DF835A015
:1034000001F02AF840A001F027F8464801F024F81E
:1034100010BD000098700008554152542053454E8D
:10342000443A615C725C6E202020416363656C6588
:10343000726174696F6E2063616C69627261746934
:103440006F6E2E0D0A0000003C7100085541525469
:103450002053454E443A555C725C6E2020204261F8
:103460006E64776964746820696E63726561736500
:103470002E0D0A00554152542053454E443A755C76
:10348000725C6E20202042616E64776964746820EB
:10349000726564756374696F6E2E0D0A000000001A
:1034A000554152542053454E443A425C725C6E2062
:1034B000202042617564207261746520696E6372B8
:1034C000656173656420746F203131353230302E80
:1034D0000D0A0000554152542053454E443A625C57
:1034E000725C6E20202042617564207261746520D8
:1034F000726564756374696F6E20746F203936303D
:10350000302E0D0A00000000554152542053454E04
:10351000443A685C725C6E20202068656C702E0DE9
:103520000A000000E8700008042808D14FF0E021EC
:10353000096941F004014FF0E022116107E04FF00A
:10354000E021096921F004014FF0E0221161704788
:103550007047000010B51348006840F001001149A1
:10356000086008464068104908400E49486008460F
:1035700000680E4908400B4908600846006820F4BE
:10358000802008600846406820F4FE0048604FF440
:103590001F008860FFF7ACFE4FF000600449086030
:1035A00010BD0000001002400000FFF8FFFFF6FE13
:1035B00008ED00E010B50121880700F0D4F818B13B
:1035C0000121880700F0BDF810BD7FB505460C4607
:1035D00001210846FFF7F0FBADF80850ADF80440B4
:1035E0000020ADF80A00ADF806008DF80C0001A926
:1035F0004FF0804000F0E6F80121880700F09EF8C7
:1036000001221146900700F0BFF81C208DF8000041
:1036100003208DF801008DF8020001208DF80300D1
:103620006846FFF7C1F97FBD10B50121054800F0DC
:103630009AF830B10121034800F083F80248FEF700
:1036400049F910BD00040040A80600207FB50546DA
:103650000C4601210220FFF7AFFBADF80850ADF892
:1036600004400020ADF80A00ADF8060001A90C489E
:1036700000F0A8F801221146094800F085F81D2045
:103680008DF8000001208DF8010000208DF8020067
:1036900001208DF803006846FFF786F97FBD000022
:1036A0000004004010B50121084800F05CF860B14A
:1036B0000121064800F045F8054800F07DF905486D
:1036C00001F098FD044802F0DFFD10BD0008004045
:1036D0005C050020AC050020C40200207FB5054633
:1036E0000C4601210420FFF767FBADF80850ADF848
:1036F00004400020ADF80A00ADF8060001A90E480C
:1037000000F060F8012211460B4800F03DF81E2041
:103710008DF8000001208DF8010000208DF80200D6
:1037200001208DF803006846FFF73EF901210248A9
:1037300000F00AF87FBD000000080040CA43028282
:103740007047CA430282704721B1028842F00102E9
:10375000028004E002884FF6FE731A400280704730
:103760000146888C704730B50246002000230024B3
:10377000158A05EA0103958905EA010413B10CB124
:10378000012000E0002030BD1AB183890B43838102
:1037900002E083898B438381704710B541F61F4156
:1037A0006320FFF753FF40F2CF2142F20F70FFF783
:1037B0000CFF41F61F413120FFF790FF10BD8184BF
:1037C00070470000002202881D4B98420ED01D4B0E
:1037D00098420BD0B0F1804F08D01B4B984205D0D7
:1037E0001A4B984202D01A4B984204D14FF68F736D
:1037F0001A404B881A43174B984207D0164B9842F1
:1038000004D04FF6FF431A40CB881A4302808B88BE
:1038100083850B8803850A4B98420BD0094B98424D
:1038200008D00E4B984205D00D4B984202D00D4B5C
:10383000984201D10B7A03860123838270470000EE
:10384000002C01400034014000040040000800400A
:10385000000C0040001000400014004000400140F7
:10386000004401400048014070B505460C464E48F2
:10387000007806286FD2DFE800F0031029364C6F7D
:10388000AA2C06D185F8244047480078401C4649B8
:103890000870AA204549087084E0552C12D12520D3
:1038A000445541480078401C3F4908700020404979
:1038B00008703E48007820443C49087000203D498B
:1038C000087002E00020384908706BE0262044555B
:1038D0003648007820443549087033480078401C49
:1038E000314908705EE02720445530480078204474
:1038F0002E4908702720405D2E4908700846007840
:1039000008B9052002E028480078401C26490870C4
:1039100048E0274800782749097888421ADA24487D
:10392000007823490978491C214A1170001D05F1CE
:1039300024010C541D48007820441C49087010468E
:1039400000781C490978884204DB17480078401C3D
:103950001549087026E024E014480078A04213D1ED
:10396000122205F1240105F13600FCF7FFFB1221BC
:1039700005F12400FCF713FC00200B4908700C49EA
:1039800008700A4908700BE00020074908700849D0
:10399000087006490870122105F12400FCF7FFFBAE
:1039A00000E000BF00BF70BD6B0000206C00002075
:1039B0006E0000206D00002070B5044694F83600BB
:1039C00008B9002070BD3920005D30B9122104F122
:1039D0003600FCF7E4FB0020F4E73A210A5D3B21C6
:1039E000095D42EA0120FDF7A7F8A064A06CFDF78D
:1039F000C5F805460A4A0B4BFDF7D4F801D20A4830
:103A0000A0643C20005D84F84C003D20005D84F8FB
:103A10004D00122104F13600FCF7C1FB0120D1E773
:103A20007B14AE47E17A843F00FF7F4710B5044620
:103A30000648A064002084F84C0084F84D0020461D
:103A400000F006F8204600F01DF810BD00FF7F478B
:103A500010B50446AA202070552060706720A07021
:103A60000120E0700020207167206071062221464D
:103A70000348FFF72CFA12212046FCF790FB10BDFB
:103A8000004C004010B50446AA20207055206070FC
:103A90006020A0700020E0705F2020710522214688
:103AA0000348FFF714FA12212046FCF778FB10BDFB
:103AB000004C004010B540F225510A4800F062F970
:103AC00001280DD1074800F019FAC4B22146064872
:103AD000FFF7CAFE40F22551024800F02BF900BF63
:103AE00010BD0000004C00405C05002010B540F205
:103AF0002551264800F046F9012845D1234800F019
:103B0000FDF9C4B222480078A0B922480078002804
:103B100034D1282C32D101201D49087000201E49C3
:103B200008701E48097844541B480078401C1A4904
:103B3000087023E01648007801281FD1292C14D1E1
:103B40000020134908701548134909784454124855
:103B50000078401C10490870002010490E4A127865
:103B6000885401200B49087008E00C480A4909787C
:103B7000445409480078401C0749087040F2255118
:103B8000024800F0D7F800BF10BD00000050004010
:103B900037000020320000203800002010020020F2
:103BA00010B540F22551264800F0ECF8012845D127
:103BB000234800F0A3F9C4B222480078A0B92248F3
:103BC0000078002834D1282C32D101201D490870FA
:103BD00000201E4908701E48097844541B4800788C
:103BE000401C1A49087023E01648007801281FD1AC
:103BF000292C14D10020134908701548134909785D
:103C0000445412480078401C1049087000201049A4
:103C10000E4A1278885401200B49087008E00C48BD
:103C20000A490978445409480078401C074908703B
:103C300040F22551024800F07DF800BF10BD0000A1
:103C400000380140330000202E0000203400002006
:103C50008000002010B540F22551264800F092F86F
:103C6000012845D1234800F049F9C4B22248007820
:103C7000A0B922480078002834D1282C32D1012064
:103C80001D49087000201E4908701E4809784454D8
:103C90001B480078401C1A49087023E01648007839
:103CA00001281FD1292C14D1002013490870154870
:103CB00013490978445412480078401C1049087090
:103CC000002010490E4A1278885401200B490870D0
:103CD00008E00C480A490978445409480078401C17
:103CE0000749087040F22551024800F023F800BF50
:103CF00010BD000000440040350000202F000020CF
:103D000036000020E400002010B540F2255108489C
:103D100000F038F8012809D1054800F0EFF8C4B2E6
:103D200040F22551024800F005F800BF10BD000028
:103D30000048004010B50022002340F66A14A1425A
:103D400000D100BF0A1201249440A3B2DC430480D6
:103D500010BD21B1828942F40052828104E082893F
:103D60004DF6FF731A408281704702460020B1F57C
:103D7000007F00D100BF13880B400BB1012000E091
:103D80000020704770B50246002400230025002063
:103D900040F66A16B14200D100BFC1F3421501F0EE
:103DA0001F03012606FA03F3012D02D19689334041
:103DB00006E0022D02D1168A334001E0968A334094
:103DC0000C12012606FA04F41688344013B10CB123
:103DD000012000E0002070BDF0B50346002400265D
:103DE0000025002040F66A17B94200D100BF1846EE
:103DF000C1F3421401F01F06012707FA06F5012C52
:103E000001D10C3004E0022C01D1103000E014305C
:103E10001AB107682F43076002E00768AF430760E5
:103E2000F0BD00002DE9F04786B005460E4600249F
:103E3000A24600BFA1460027B08900B100BF2F46AF
:103E40002C8A4CF6FF700440F08804432C82AC8925
:103E50004EF6F3100440B088318908437189084355
:103E60000443AC81AC8A4FF6FF400440B089044360
:103E7000AC8201A8FEF7C0FF1F48874202D1DDF8DF
:103E800010A001E0DDF80CA0A88900F4004040B1CA
:103E90000AEBCA0000EB0A1031684900B0FBF1F8E8
:103EA00007E00AEBCA0000EB0A1031688900B0FB9A
:103EB000F1F86420B8FBF0F004012009642101FB53
:103EC0001089A88900F4004040B1322000EBC900FD
:103ED000B0FBF1F000F00700044308E0322000EBF3
:103EE00009106421B0FBF1F000F00F0004432C81B5
:103EF00006B0BDE8F0870000003801400146888820
:103F0000C0F308007047C1F308028280704700BF09
:103F1000FEE70000014611B96FF005007047024846
:103F200001600020FAE7000054000020024612B9A8
:103F30006FF00500704711B96FF00500FAE703480C
:103F40000260034801600020F4E700004400002004
:103F5000480000200246032A02D96FF0050070478E
:103F600004480260044801700020044B186000BF40
:103F7000F5E7000060000020580000205C000020F1
:103F80002DE9FC4104460D466019902803D36FF0DB
:103F90000500BDE8FC816448006830B1012824D0E8
:103FA000022857D0032877D177E0042D02D96FF08B
:103FB0000500EEE75D48006810B96FF00400E8E71F
:103FC000FF208DF80000AA208DF8010027208DF831
:103FD0000200E0B28DF80300200A8DF804000521EC
:103FE0006846524A1268904799E05048006810B9F4
:103FF0006FF00400CDE74FF6FF7000EA4506701D34
:10400000B0F5807F02DD6FF00300C2E7484800781A
:104010008DF8000003208DF80100200A8DF80200C1
:10402000E0B28DF80300280A8DF80400E8B28DF89C
:1040300005000621684600F033FA064630128DF876
:104040000600F0B28DF8070008216846374A12686A
:10405000904764E0032D02D96FF0050099E73548D9
:10406000006810B96FF0040093E7FF208DF800009E
:10407000AA208DF8010027208DF80200E0B28DF80B
:104080000300200A8DF804000522694628480078BC
:10409000284B1B68984742E03EE02748006810B96B
:1040A0006FF0040075E74FF6FF7000EA4506B6F5BD
:1040B000807F02DD6FF003006BE7E1B21C4A1278EB
:1040C0005206100E33461D4ADFF86CC0DCF800C003
:1040D000E04701281FD11A48006810B96FF00400AA
:1040E00057E7002710E0154810F81700012101EBF1
:1040F0004701124A515C40EA012000B23919114AC5
:1041000022F81100781C87B2AF42ECD32946204632
:104110000B4A1268904702E06FF0050039E700BFD4
:1041200009480460002034E76000002040000020BF
:10413000580000204C00002048000020DC02002035
:1041400050000020DC03002064000020014611B96B
:104150006FF005007047024801600020FAE7000098
:104160005000002010B504460622002120B2FDF7C1
:1041700007F910B96FF0050010BD4BF288516920A6
:1041800000F0CCF810B16FF00200F5E70C480068C1
:10419000012804D114200B490968884706E0084823
:1041A000006818B90120074909688847A1B21F2093
:1041B00000F0B4F810B16FF00200DDE70020DBE79B
:1041C000600000205400002010B5044607220121A1
:1041D00020B2FDF7D5F810B96FF0050010BD4BF215
:1041E0008851692000F09AF810B16FF00200F5E7ED
:1041F0000C480068012804D114200B49096888473D
:1042000006E00848006818B901200749096888478E
:10421000A1B2042000F082F810B16FF00200DDE7D7
:104220000020DBE7600000205400002010B54BF2B6
:104230008851692000F072F810B16FF0020010BDD3
:104240000C480068012804D114200B4909688847EC
:1042500006E00848006818B901200749096888473E
:104260000121084600F05AF810B16FF00200E6E7AD
:104270000020E4E7600000205400002010B54BF25D
:104280008851692000F04AF810B16FF0020010BDAB
:104290000C480068012804D114200B49096888479C
:1042A00006E00848006818B90120074909688847EE
:1042B0000721012000F032F810B16FF00200E6E7AC
:1042C0000020E4E7600000205400002010B54BF20D
:1042D0008851692000F022F810B16FF0020010BD83
:1042E0000C480068012804D114200B49096888474C
:1042F00006E00848006818B901200749096888479E
:104300000021012000F00AF810B16FF00200E6E78A
:104310000020E4E760000020540000202DE9FC416B
:1043200005460C46902D03D36FF00500BDE8FC81D7
:104330004448006830B101281FD0022847D0032824
:104340007AD161E04048006810B96FF00400EDE7F1
:10435000FF208DF80000AA208DF80100E8B28DF84A
:104360000200E0B28DF8030020128DF80400052150
:104370006846354A1268904761E03348006810B9D2
:104380006FF00400D2E7314800788DF80000062075
:104390008DF80100280A8DF80200E8B28DF80300BC
:1043A00020128DF80400E0B28DF805000621684661
:1043B00000F076F8064630128DF80600F0B28DF85F
:1043C000070008216846204A1268904737E02048D5
:1043D000006810B96FF00400A8E7FF208DF8000016
:1043E000AA208DF80100E8B28DF80200E0B28DF845
:1043F000030020128DF80400052269461348007856
:10440000134B1B6898471AE01248006810B96FF008
:1044100004008BE7E0B28DF8000020128DF8010057
:10442000E9B20A4A12785206100E02236A46094F70
:104430003F68B84703E0FFE76FF0050076E700BF8D
:10444000002073E76000002040000020580000209A
:104450004C000020440000200FB4054B10B503A908
:10446000044A029800F012F910BC5DF814FB000039
:104470008D5700087C0000200FB4084B10B504A92C
:1044800002AA039800F002F9044602A9002000F0F5
:1044900080FC204610BC5DF814FB0000934D000822
:1044A00070B503460C46FF25FF26002200BF00BF63
:1044B00009E0985C80EA05010548405C80EA060551
:1044C0000448465C521CA242F3DB46EA052070BD5C
:1044D000686800086869000802E008C8121F08C17F
:1044E000002AFAD170477047002001E001C1121F75
:1044F000002AFBD1704700002DE9FF5F82B0002148
:10450000DDE90430020DDDF840B0034318D044F675
:104510001050A2F2FF3242431514119801281FD007
:10452000A5EB0B00401C5FEA000A4FF000064E4F5F
:10453000DFF83891B046504615D5CAF1000413E0B3
:10454000119801244AA3012801D16FEA0B010298B6
:10455000119AC0E90031C0E9024206B0BDE8F09FFF
:10456000CBF10000DFE704460021404A491842EB46
:104570000450CDE9001012E0E00707D032463B4678
:1045800040464946FCF7F7F98046894632463B46A5
:1045900010461946FCF7EFF906460F466410002C4A
:1045A000EAD1DDE90401DDE90023BAF1000F06DA02
:1045B000FCF7E1F942464B46FCF7DDF905E0FCF774
:1045C0004CFA42464B46FCF748FA04460E46002297
:1045D000284BFCF791FC03D84FF0FF30014607E071
:1045E0000022254B20463146FCF71EF9FCF76CFCF7
:1045F000102409E0002C0ADB0A220023FCF730FB20
:10460000039B30321A55641E50EA0102F2D1641C39
:10461000039AC4F111031444119A012A03D0012210
:1046200008430DD10AE0084304D000204FF0110BDD
:10463000119072E7A3EB0B056D1E0DE05B4504DDE9
:104640004FF0000205F1010504E003DA4FF000022B
:10465000A5F10105002AECD002981199C0E90231B8
:10466000C0E9004579E70000000014400000F03F79
:10467000300000000000F0430000E03F30380A281E
:1046800001D2012070470020704700002DE9FF4F44
:1046900095B09A46884606460025EEE1252877D152
:1046A00000242746F94A0121039400E0044316F848
:1046B000013F203B01FA03F01042F7D130782A285D
:1046C00011D06FF02F033078A0F13002092A16D8EC
:1046D000039A44F0020402EB820203EB420210440C
:1046E000761C0390EFE758F8042B0392002A03DAB4
:1046F000504244F40054039044F00204761C307895
:104700002E2816D116F8010F44F004042A280DD0E3
:104710006FF02F023078A0F13003092B09D807EB96
:10472000870302EB4303C718761CF3E758F8047BB2
:10473000761C30786C280FD006DC4C2817D06828FF
:104740000DD06A2814D104E0742810D07A280FD133
:104750000DE044F400140AE044F4801401E044F451
:1047600040147278824202D104F58014761C761CC3
:10477000307866280BD013DC582877D009DC002865
:1047800075D04528F6D04628F4D047281AD193E1B1
:1047900018E0632835D0642879D0652812D18BE1E0
:1047A000702873D008DC6728F1D069286FD06E2894
:1047B0000DD06F2806D1ACE073282CD0752874D0AA
:1047C000782853D05246179990476D1C54E1C4F392
:1047D0000250022809D003280DD0D8F80010042870
:1047E0000DD00D6008F1040846E1D8F80010EA1772
:1047F000C1E90052F6E7D8F800100D80F2E70D701D
:10480000F0E718F8041B8DF8001000208DF8010067
:10481000EB46012003E058F804BB4FF0FF3061077E
:104820004FF0000102D40DE009F101018946B942BF
:104830000FDA8145F8DB1BF809100029F4D108E0F4
:1048400009F1010189468142FADB1BF809100029B0
:10485000F6D103985346A0EB090721463846179A2C
:1048600000F080FA284400EB090507E044E008E185
:104870000DE01BF8010B524617999047B9F1010959
:10488000F7D2534621463846179AF2E039E00A211A
:10489000C4F302524FF0000B0091022A06D058F8E0
:1048A000040BC117032A09D00AE023E008F107002E
:1048B00020F00702F2E80201904605E000B2C117BD
:1048C000042A01D140B2C117002906DA0A460021A4
:1048D000404261EB02012D2202E0220504D52B2289
:1048E0008DF80420012203E0E20701D02022F7E73F
:1048F000914657E00A2100E010214FF0000B009193
:104900000BE010214FF0000B44F004040827009145
:1049100003E008204FF0000B0090C4F30252022A7B
:1049200005D058F8040B0021032A08D008E008F14C
:10493000070020F00702F2E80201904603E080B28F
:10494000042A00D1C0B24FF0000922072AD53278DC
:10495000702A07D0DDF800C08CF0100C5CEA0B0C5C
:1049600005D00EE040228DF80420012208E050EA34
:10497000010306D030238DF804308DF80520022283
:104980009146009B83F0080353EA0B030AD150EAD7
:10499000010201D1620705D530228DF804204FF0C5
:1049A00001097F1E3278582A04D039A20C920CAA31
:1049B00002920BE03BA2F9E75B46009AFCF750F944
:1049C0000C9B9B5C029A521E0292137050EA0102E9
:1049D000F2D1029804A9081A00F1200B600702D551
:1049E00024F4803400E001275F4502DDA7EB0B00D3
:1049F00000E0002000EB0B01009003984944401AAE
:104A00000390E00306D453462146179A039800F01A
:104A1000A9F90544002706E001A85246C05D179990
:104A200090476D1C7F1C4F45F6DBE0030CD55346C9
:104A30002146179A039800F095F9054404E03020C8
:104A40005246179990476D1C0099481E0090002906
:104A5000F5DC08E00298029952460078491C029160
:104A6000179990476D1CBBF10001ABF1010BF1DC14
:104A70005BE100F065F90544761C307800287FF48E
:104A80000DAE19B02846BDE8F08F000009280100DE
:104A900030313233343536373839616263646566B4
:104AA0000000000030313233343536373839414276
:104AB0004344454600000000600700D4062708F183
:104AC000070020F00700F0E80223804603F0004CC6
:104AD0005FEA0C0001D097A009E0200501D596A05F
:104AE00005E0E00701D095A001E0AFF24C00139083
:104AF000307823F0004365280CD006DC452809D027
:104B000046281DD047287FD13BE0662818D067286B
:104B10007AD136E00021112F01DB112000E0781C52
:104B2000CDE9000104A90CA8FFF7E6FCDDE90D01C1
:104B30000C9A4FF0000B07F10109109200914EE022
:104B40004FF000400097CDE9011004A90CA8FFF731
:104B5000D3FCDDE90D020C9B0F994FF0000B914641
:104B60001093009211B9791C00EB0109B7EB090011
:104B700003D4C0F1FF3B07F10109A9EB0700019045
:104B800042E0012F00DA01270021112F01DD112061
:104B900000E03846CDE9000104A90CA8FFF7ACFC01
:104BA000DDE90D010C9A00914FF0000BB94610920F
:104BB00021070FD4009A4A4503DA914601E0A9F192
:104BC0000109B9F1010F05DD109AA9F10101515C4C
:104BD0003029F4D0B84202DA10F1040F03DA0121CF
:104BE000CDE9011010E0002803DC8344A9EB0001AB
:104BF00002E0411C494500DD8946A0EB0B00401C4A
:104C000001904FF000400290200705D401984845DC
:104C100002DB4FF0FF30019000208DF84B0002982E
:104C20000DF14B07B0F1004F25D002200C902B2046
:104C30000D90029800280CDA404202902D200D9031
:104C400007E00A210298FBF7F5FF3031029007F8E0
:104C5000011D0C99481E0C900029F2DC02980028D6
:104C6000EFD1791E0D980870307800F0200040F0E8
:104C7000450007F8020D11A8C01BC01D0290139833
:104C8000007800B1012000EB0901019801EBE0710F
:104C9000029801440398401A401E0390E00306D492
:104CA00053462146179A039800F05CF80544139880
:104CB000007818B15246179990476D1CE00323D530
:104CC00053462146179A039800F04CF805441BE020
:104CD000BBF1000F07DB0098584504DD10981799C9
:104CE00010F80B0001E017993020524690470198C8
:104CF0000BF1010B401E05F10105019004D12E209E
:104D00005246179990476D1CB9F10001A9F10109AC
:104D1000DEDC05E017F8010B5246179990476D1C31
:104D20000299481E02900029F4DC53462146179A46
:104D300003989EE62D0000002B00000020000000DC
:104D40002DE9F041044600251E461746880404D488
:104D500005E039462020B0476D1C641EF9D5284671
:104D6000BDE8F0812DE9F041044600251E4690463D
:104D7000C80301D5302700E02027880404D505E0CA
:104D800041463846B0476D1C641EF9D52846BDE83B
:104D9000F0810A68531C0B60107070472DE9F04FCA
:104DA0008BB004464FF00009F748FDF7FFFB00BF4A
:104DB0000AE004F13C0050F82910143040F82910A2
:104DC00009F1010000F0FF09B9F1050FF1DB4FF027
:104DD00001090DE0A9F10100EB49283151F820103B
:104DE00004F13C0040F8291009F1010000F0FF092E
:104DF000B9F1050FEEDB4FF001090FE004F13C00C3
:104E000050F82910143050F82900091A04F16400F0
:104E100040F8291009F1010000F0FF09B9F1050F70
:104E2000ECDBA06E002842DBE06E00283FDB206F49
:104E300000283CDB606F002839DBA26EE16E0A447B
:104E4000216F0A44616F5018C11700EB91718910EE
:104E50006166606EFBF770FE8346CC49FBF7A6FCEB
:104E60008246FBF78BFE00224FF08043CDE9020122
:104E7000FBF781FD07464FF0C042C54BFBF77BFDBA
:104E80000022C44BCDE90401FBF775FD05460E4633
:104E9000A06FFBF773FE2A463346CDE90601FBF708
:104EA000C3FCCDE90801FBF795FEA06779E1A06E90
:104EB000002841DAE06E00283EDA206F00283BDA55
:104EC000606F002838DAA16E4A42E16E521A216FF3
:104ED000521A616F501AC11700EB91718910616607
:104EE000606EFBF729FEA9490290FBF75FFC039077
:104EF000FBF744FE824600224FF08043FBF73BFD68
:104F00004FF0C042A24BCDE90401FBF734FD074648
:104F10000022A04BFBF72FFDCDE90601A06FFBF7A8
:104F20002DFE0546DDE90623FBF71FFDCDE908014F
:104F3000FBF750FEA06734E1A06E002841DBE06E75
:104F400000283EDA206F00283BDA606F002838DB4B
:104F5000A26EE16E521A216F521A616F5018C1177A
:104F600000EB917189106166606EFBF7E5FD874982
:104F70000290FBF71BFC0390FBF700FE05460022A6
:104F80004FF08043FBF7F7FC4FF0C042804BCDE978
:104F90000401FBF7F0FC00227E4BCDE90601FBF794
:104FA000EAFC07468846E06FFBF7E8FD82463A4692
:104FB0004346FBF7DAFCCDE90801FBF70BFEE0679F
:104FC000EFE0A06E002843DAE06E002840DB206F9F
:104FD00000283DDB606F00283ADAA16E4A42E16E9C
:104FE0000A44216F0A44616F501AC11700EB917196
:104FF00089106166606EFBF79FFD83466349FBF78E
:10500000D5FB8246FBF7BAFD00224FF08043CDE985
:105010000201FBF7B0FC07464FF0C0425C4BFBF7C8
:10502000AAFC00225B4BCDE90401FBF7A4FC05467A
:105030000E46E06FFBF7A2FD2A463346CDE9060196
:10504000FBF7F2FBCDE90801FBF7C4FDE067A8E040
:10505000A06E00284ADBE06E002847DA206F0028A7
:1050600044DB606F002841DAA26EE16E521A216FB4
:105070000A44616F501AC11700EB91718910616683
:10508000606EFBF759FD83464049FBF78FFB824674
:10509000FBF774FD00224FF08043CDE90001FBF7E0
:1050A0006AFC05464FF0C042394BFBF764FC0746EB
:1050B0000022384BFBF75FFC4FF02042364BCDE926
:1050C0000201FBF7CAFCCDE90601D4F88000FBF72A
:1050D00055FDCDE90401DDE90623FBF7A5FBCDE98C
:1050E0000801FBF777FDC4F880005AE0A06E0028A5
:1050F00054DAE06E002851DB206F00284EDA606F32
:1051000000284BDBA16E4A42E16E0A44216F521A1D
:10511000616F5018C11700EB917189106166606E64
:10512000FBF70AFD19490090FBF740FB0190FBF7E4
:1051300025FD824600224FF08043FBF71CFC4FF018
:10514000C042134BCDE90201FBF715FC07460022D4
:10515000104BFBF710FC4FF020420F4BCDE9040140
:10516000FBF77BFCCDE90801D4F88000FBF706FDD6
:10517000CDE90601DDE90823FBF7F7FB0546FBF760
:1051800029FDC4F880000CE07402002000807745FF
:10519000FB2109400000124099193A400BB0BDE8CC
:1051A000F08FE06B616E0844E06300BFF6E700211A
:1051B00000BF16E0002300F1140242F82130002263
:1051C00040F8212000F1280242F82130283242F82C
:1051D0002130143A42F82130283242F821304A1C5A
:1051E000D1B20529E6DB00228267C267C0F88020C1
:1051F000704700002DE9F04788B08246C748007824
:1052000001287DD1C64840784138162879D2DFE898
:1052100000F02F786078FDFC0B78FB7878781378B5
:105220009BE2FA78CB88787CBD4880783038BD49DD
:1052300008700020487064E10AF11001081F031F84
:105240001A1FCDE90001B8A1B548FAF7B3FFDAF8A3
:10525000100040B20090DAF80C0043B2DAF808000F
:1052600042B2DAF8040041B2B348FDF761FB48E10D
:10527000B248FFF793FDB149D1F88000FBF77EFCFF
:1052800004460D46AD49C86FFBF778FC06460F464D
:10529000AA49886FFBF772FC804642460B46A8A0DD
:1052A000CDE90067CDE90245FFF7D6F8A248406B8B
:1052B0000090A148036BC26A816AA8A0FFF7CCF8EE
:1052C0009D48FDF717FB9C480188AAA0FFF7C4F88A
:1052D00017E10AF10800031F0AF11802A9A10090C2
:1052E0008F48FAF767FFDAF80800C3B2DAF804006B
:1052F000C2B2DAF81810A74801F0B4F9A54801E0E5
:1053000009E1FDE001F056F8FBE00AF10402A2A178
:105310008348FAF74FFFDAF8041088B201F07CFAFC
:10532000EFE09F49886CFBF729FC04460B469C483C
:1053300090F84D009A4991F84C102246CDE90010A2
:1053400098A0FFF789F8DCE00AF104029AA17448FA
:10535000FAF730FFDAF80400C1B2994800F0C4FF50
:105360009749C868FBF70AFC04460D4694498868CB
:10537000FBF704FC06460F4691494868FBF7FEFB25
:10538000804689468E490868FBF7F8FB02460B46C3
:10539000CDE90089CDE90267CDE90445CDE90601F3
:1053A00088A0FFF759F8ACE00AF10C00031F1A1FA0
:1053B0008CA100905A48FAF7FDFEDAF804008D49F6
:1053C0000870DAF808008880DAF80C00488008468F
:1053D00001F064F995E00AF104010AF12402101FBA
:1053E000031FCDE9012100900C3A83A14C48FAF744
:1053F000E1FEDAF82030DAF81C20DAF818108348D9
:1054000000F0D4FF03E06AE032E00CE058E0DAF8A4
:105410000400C2B2DAF824107C4800F09FFF7B48F9
:1054200000F076FF6DE00AF11001081F031F1A1F3C
:10543000CDE9000176A13A48FAF7BCFEDAF810008F
:1054400040B20090DAF80C00C3B2DAF8080082B279
:10545000DAF8040081B27248FCF70CFB70488288CD
:10546000418870A0FEF7F8FF6D48FCF7DDFA48E0D0
:105470007148FCF727FF7049486AFBF77FFB044639
:1054800022460B466DA0FEF7E7FF6B49086AFBF763
:1054900075FB04460D466849C869FBF76FFB064675
:1054A0000F4665498869FBF769FB804642460B4613
:1054B00066A0CDE90067CDE90245FEF7CDFF20E00B
:1054C00000F018F96749086008460068FBF756FBCA
:1054D000044622460B4664A0FEF7BEFF11E00AF127
:1054E000040264A10E48FAF765FEDAF8040018B960
:1054F0000020FDF74FFC02E00120FDF74BFC00E02F
:1055000000BF00BF0648FEF7A7FF13A0FEF7A4FFE9
:1055100000200249087008B0BDE8F0872E00002086
:10552000800000206F000020284D2C25642C25646D
:105530002C25642C2564290074020020E00500203D
:10554000783D252E31662C793D252E31662C616EF5
:10555000676C653D252E31660D0A0000656E636F30
:105560006465723D25642C25642C25642C25640D0E
:105570000A000000766F6C746167653D25640D0A52
:105580000000000028432C25662C25642C25642966
:10559000000000009806002028562C2564290000F1
:1055A0005C050020643D252E31662C653D25642C6C
:1055B0006E3D25640D0A0000284F2C25642900004B
:1055C000C4020020783D252E31662C793D252E31F0
:1055D000662C643D252E31662C6B3D252E31660DE3
:1055E0000A00000028532C25642C25642C256429EE
:1055F00000000000B002002028502C25662C2566F3
:105600002C25662C25662C256429000064060020C4
:1056100028462C25642C25642C25642C256429001F
:1056200072000020667573696F6E207365743A2589
:10563000642C25640D0A0000FC040020617A696D69
:105640007574683D252E33660D0A0000616E676C27
:10565000653D252E31662C252E31662C252E316692
:105660000D0A00003C0000206563686F3D252E3266
:105670006600000028512C25642900000146002006
:1056800000220A7000BF05E000230A1D42F8203006
:10569000421CD0B20528F7DB002006E0002301F110
:1056A000180242F82030421CD0B20728F6DB7047BF
:1056B00008B501210420FDF78FFB4020ADF8000064
:1056C00010208DF8030003208DF802006946084879
:1056D000FCF7F8F98020ADF8000004208DF80300F5
:1056E00003208DF8020069460148FCF7EBF908BD7C
:1056F000000801402DE9F041002400BF802120482E
:10570000FCF76BFA0128F9D040211D48FCF770FA2C
:105710001E20FBF759FF40211948FCF767FA00BF2C
:1057200080211748FCF759FA0028F9D000214FF0E2
:105730008040FEF744F801218807FEF705F800BF16
:1057400080210F48FCF749FA0028F9D100214FF0D9
:105750008040FDF7F9FF4FF08040FEF701F8054665
:10576000FBF7F3F904462046FBF708FA0546054A1D
:10577000054BFBF700F90746FBF72CFABDE8F08173
:10578000000801409CC420B07268913F70B5044687
:105790000D46E1B20248FDF7ABFB204670BD0000AC
:1057A0000038014000210170417081707047000095
:1057B00070B505460024287801287DD1F9A0FEF7B0
:1057C0004BFEFCA203210120FDF794FA00BF05E087
:1057D0004FF47A70FBF7D2FE601CC4B2072CF7DBE3
:1057E000F64800F083FF1E20FDF7C6F8002405E010
:1057F0004FF47A70FBF7C2FE601CC4B20E2CF7DBCC
:1058000040F26B10FBF7BAFEED48FDF7AAF86420F2
:10581000FBF7B4FEA87818B91E20FCF76BFE03E076
:105820006FF01D00FCF766FE002405E04FF47A706F
:10583000FBF7A4FE601CC4B2092CF7DB40F2653014
:10584000FBF79CFEDE48FDF78CF86420FBF796FE24
:10585000A87818B91E20FDF75BF803E06FF01D0073
:10586000FDF756F80120FBF789FEA87818B91E202D
:10587000FDF74EF803E06FF01D00FDF749F84FF417
:105880007A70FBF77BFE4FF47A70FBF777FE1420FB
:10589000FBF774FECA48FDF764F84FF47A70FBF723
:1058A0006DFE4FF4967000F0B7FF4FF49670FBF763
:1058B00065FEA87830B900E04FE06FF01D00FDF7FD
:1058C00027F802E01E20FDF723F84FF47A70FBF76B
:1058D00055FE4FF47A70FBF751FE1420FBF74EFE95
:1058E000B748FDF73EF86420FBF748FEA87820B9DA
:1058F0006FF01D00FCF7FEFD02E01E20FCF7FAFD34
:10590000002405E04FF47A70FBF738FE601CC4B247
:10591000092CF7DB40F26530FBF730FEA848FDF7B5
:1059200020F86420FBF72AFE6FF01D00FDF724F835
:10593000002405E04FF47A70FBF720FE601CC4B22F
:105940000E2CF7DB40F26B10FBF718FE9C48FDF7BE
:1059500008F86420FBF712FE51E22878022879D17A
:1059600098A0FEF779FD9BA203210120FDF7C2F963
:10597000002405E04FF47A70FBF700FE601CC4B20F
:10598000072CF7DB8D4800F0B1FE1E20FCF7F4FF7A
:10599000002405E04FF47A70FBF7F0FD601CC4B200
:1059A0000E2CF7DB40F26B10FBF7E8FD8448FCF7A8
:1059B000D8FF6420FBF7E2FDA87818B91E20FCF799
:1059C00099FD03E06FF01D00FCF794FD002405E055
:1059D0004FF47A70FBF7D2FD601CC4B2032CF7DBE6
:1059E0007748FCF7BEFF6420FBF7C8FDA87820B914
:1059F0006FF01D00FCF77EFD02E01E20FCF77AFD33
:105A0000002405E04FF47A70FBF7B8FD601CC4B2C7
:105A1000032CF7DB6A48FCF7A4FF6420FBF7AEFD1C
:105A20006FF01D00FCF7A8FF002405E04FF47A702A
:105A3000FBF7A4FD601CC4B20E2CF7DB40F26B1028
:105A4000FBF79CFD5E48FCF78CFF6420FBF796FD9E
:105A5000F1E3FFE7287803287DD160A0FEF7FCFC86
:105A600062A203210120FDF745F9002405E04FF46F
:105A70007A70FBF783FD601CC4B2072CF7DB4F483C
:105A800000F034FE1E20FCF777FF002405E04FF401
:105A90007A70FBF773FD601CC4B20E2CF7DB40F28A
:105AA0006B10FBF76BFD4648FCF75BFF6420FBF7D0
:105AB00065FDA87818B91E20FCF71CFD03E06FF007
:105AC0001D00FCF717FD02E04A48FDF775FF494944
:105AD000886C4949FBF7A4F8F6D33948FCF741FF35
