:020000040800F2
:10000000A00400200501000805050008B70200084B
:10001000010500084D010008CF0C00080000000099
:10002000000000000000000000000000A50600081D
:1000300051010008000000008D050008CD090008EE
:100040001F0100081F0100081F0100081F01000810
:100050001F0100081F0100081F0100081F01000800
:100060001F0100081F0100081F0100081F010008F0
:100070001F0100081F0100081F0100081F010008E0
:100080001F0100081F0100081F0100081F010008D0
:100090001F0100081F0100081F0100081F010008C0
:1000A0001F0100081F0100081F0100081F010008B0
:1000B0001F0100081F0100081F0100081F010008A0
:1000C0001F0100081F0100081F0100081F01000890
:1000D0001F010008310A00081F0100081F01000865
:1000E0001F0100081F0100081F010008DFF810D0E1
:1000F00000F01AF800480047110D0008AFF3008027
:10010000A00400200648804706480047FEE7FEE7B7
:10011000FEE7FEE7FEE7FEE7FEE7FEE7FEE7FEE7B7
:10012000D1090008ED000008064C074D06E0E06824
:1001300040F0010394E8070098471034AC42F6D32E
:10014000FFF7D8FF041000082410000800BFFEE7E6
:10015000704700B5034603E04FF47A7000F005F8ED
:10016000181EA3F10103F7D100BD00EBC001C900C7
:100170004FF0E0225161002191610521116100BF22
:100180004FF0E021096901F480310029F8D0042101
:100190004FF0E022116170472DE9F0410246002541
:1001A0000026002000230024002791F803C00CF053
:1001B0000F0591F803C00CF0100CBCF1000F03D038
:1001C00091F802C04CEA050591F800C0BCF1000F9F
:1001D00031D0146800202BE04FF0010C0CFA00F332
:1001E000B1F800C00CEA03069E4220D183004FF014
:1001F0000F0C0CFA03F7BC4305FA03FC4CEA0404A9
:1002000091F803C0BCF1280F06D14FF0010C0CFA95
:1002100000FCC2F814C00AE091F803C0BCF1480F1A
:1002200005D14FF0010C0CFA00FCC2F810C0401CC4
:100230000828D1D31460B1F800C0BCF1FF0F34DD41
:10024000546800202EE000F1080C4FF0010808FA75
:100250000CF3B1F800C00CEA03069E4221D18300E2
:100260004FF00F0C0CFA03F7BC4305FA03FC4CEA01
:10027000040491F803C0BCF1280F05D100F1080C6B
:1002800008FA0CF8C2F8148091F803C0BCF1480FCA
:1002900007D100F1080C4FF0010808FA0CF8C2F879
:1002A0001080401C0828CED35460BDE8F081416125
:1002B00070470161704700BFFEE7000008B50121EB
:1002C000082000F075F941F20200ADF8000010209E
:1002D0008DF8030003208DF8020069460448FFF7FB
:1002E0005BFF41F202010248FFF7E3FF08BD000097
:1002F000000C014070B504461848006820F07040BA
:10030000164908600846006840F040500860002028
:100310001349086000251EE0E00920B101201049C2
:100320002C31086003E000200D492C310860600684
:10033000040E0220FFF719FF01200949086002207E
:10034000FFF713FF00200749C1F884010220FFF7DF
:100350000CFF681CC5B2082DDEDB70BD000C01402F
:1003600084812142008021422DE9F04105460E465C
:100370001746984600F02CF8002141EA4501C8B222
:10038000FFF7B8FF00F070F820B100F047F8012047
:10039000BDE8F0813046FFF7ADFF00F065F818B119
:1003A00000F03CF80120F3E700240BE0385DFFF794
:1003B000A1FF00F059F818B100F030F80120E7E78C
:1003C000601CC4B24445F1DB00F028F80020DFE7F0
:1003D00010B50F48006820F070400D4908600846CD
:1003E000006840F04050086001200A4908600A494E
:1003F000C1F884010420FFF7B8FE00200549086019
:100400000420FFF7B2FE00200349C1F8840110BDAB
:10041000000C0140B08121420080214210B50F48FC
:10042000006820F070400D4908600846006840F000
:100430004050086000200A4908600A49C1F8B0012C
:100440000420FFF792FE0120054908600549C1F824
:10045000B0010420FFF789FE10BD0000000C014030
:10046000848121420080214210B500241448006894
:1004700020F07040124908600846006840F00040D3
:10048000086001200F490860FFF76FFE01200E4948
:10049000C1F88401FFF769FE07E0601CC4B2FA2CC2
:1004A00003DDFFF7BBFF012010BD06488038006860
:1004B0000028F2D103492C39086000BFF4E700009E
:1004C000000C0140B08121420080214208B5012189
:1004D000102000F06DF810208DF80300C002ADF878
:1004E000000003208DF8020069460448FFF754FE1F
:1004F0004FF400410148FFF7DCFE08BD0010014049
:1005000000BFFEE77047000070B5002100230F22F6
:10051000C47804B3154C246804F4E064C4F5E064C2
:10052000210AC1F10403CA40447804FA03F1847833
:100530001440214309010E4C0678A155047804F0BB
:100540001F050124AC4005786D11AD0005F1E025D3
:10055000C5F8004109E0047804F01F050124AC400F
:10056000044D0678761145F8264070BD0CED00E08C
:1005700000E400E080E100E002490143024A11602A
:10058000704700000000FA050CED00E07047000025
:1005900029B1064AD2690243044BDA6104E0034AF6
:1005A000D2698243014BDA617047000000100240BB
:1005B00029B1064A92690243044B9A6104E0034A56
:1005C00092698243014B9A6170470000001002401B
:1005D00030B500210022002400232D4D6D6805F068
:1005E0000C0121B1042905D0082923D105E0294DAA
:1005F000056022E0274D05601FE0254D6D6805F47C
:100600007012234D6D6805F48034022505EB92428B
:100610001CB9214D554305600BE01D4D6D6805F477
:1006200000351DB11C4D5543056002E0194D554381
:10063000056002E0174D056000BF00BF144D6D68F6
:1006400005F0F0010909154D6B5C0568DD4045605A
:100650000F4D6D6805F4E061090A104D6B5C45684B
:10066000DD4085600A4D6D6805F46051C90A0B4D87
:100670006B5C4568DD40C560054D6D6805F4404123
:10068000890B074D6B5CC568B5FBF3F5056130BDA3
:100690000010024000127A0000093D000000002016
:1006A00010000020704770B504460D4629462046CC
:1006B00000F009FB00BF8021204600F036FA002838
:1006C000F9D070BD70B506460C46002505E0615DA9
:1006D0003046FFF7E8FF681CC5B2605D0028F6D120
:1006E00070BD2DE9F04107460D461646002400BFB7
:1006F00005E0295D3846FFF7D6FF601CC4B2B4425E
:10070000F7DBBDE8F081000010B586B0044601219A
:100710008803FFF74DFF01210420FFF749FF182050
:100720008DF817004FF40070ADF8140003208DF819
:10073000160005A91F48FFF72FFD48208DF8170068
:100740004FF48060ADF8140003208DF8160005A961
:100750001848FFF721FD01940020ADF810000C208F
:10076000ADF80E000020ADF80C00ADF80A00ADF8B1
:10077000080001A9104800F035FA012240F2255185
:100780000D4800F009FA4FF4A060FFF7F5FE2520B0
:100790008DF8000001208DF803008DF801008DF820
:1007A00002006846FFF7B0FE0121034800F0B1F9EE
:1007B00006B010BD000801400038014010B586B0F9
:1007C000044601214804FFF7E3FE01210420FFF75E
:1007D000EFFE18208DF817000420ADF81400032058
:1007E0008DF8160005A91448FFF7D6FC48208DF8AF
:1007F00017000820ADF8140003208DF8160005A995
:100800000D48FFF7C9FC01940020ADF810000C2042
:10081000ADF80E000020ADF80C00ADF80A00ADF800
:10082000080001A9054800F0DDF90121034800F0A6
:1008300070F906B010BD00000008014000440040FF
:1008400010B586B0044601218804FFF7A1FE0121FE
:100850000820FFF7ADFE18208DF817004FF48060D8
:10086000ADF8140003208DF8160005A91448FFF711
:1008700093FC48208DF817004FF40060ADF8140089
:1008800003208DF8160005A90D48FFF785FC01949B
:100890000020ADF810000C20ADF80E000020ADF8DF
:1008A0000C00ADF80A00ADF8080001A9054800F0F9
:1008B00099F90121034800F02CF906B010BD0000A1
:1008C000000C01400048004010B54FF4E130FFF744
:1008D0001BFF4FF4E130FFF771FF4FF4E130FFF7FA
:1008E000AFFF10BD10B500F001F810BD0CB5002031
:1008F000019000903348006840F48030314908602E
:1009000000BF3048006800F4003000900198401C9F
:100910000190009818B90198B0F5A06FF1D129485D
:10092000006800F4003010B10120009001E00020C8
:1009300000900098012843D12348006840F010003F
:10094000214908600846006820F003000860084656
:10095000006840F0020008601A4840681949486081
:100960000846406848600846406840F48060486037
:100970000846406820F47C1048600846406840F40F
:10098000E81048600846006840F08070086000BFCA
:100990000C48006800F000700028F9D00948406851
:1009A00020F00300074948600846406840F0020014
:1009B000486000BF0348406800F00C000828F9D1E7
:1009C0000CBD0000001002400020024070470000F3
:1009D00010B51348006840F001001149086008464E
:1009E0004068104908400E494860084600680E49B2
:1009F00008400B4908600846006820F48020086021
:100A00000846406820F4FE0048604FF41F008860EC
:100A1000FFF768FF4FF000600449086010BD000058
:100A2000001002400000FFF8FFFFF6FE08ED00E0B6
:100A300010B540F225512A4800F084F801284DD124
:100A4000274800F03BF9C4B22A2C01D100F098FAF3
:100A500024480078C0B924480078002838D1232CD5
:100A600003D0402C01D0242C32D101201D49087024
:100A700000201E4908701E48097844541B4800781D
:100A8000401C1A49087023E01648007801281FD13D
:100A9000212C14D1002013490870154813490978F6
:100AA000445412480078401C104908700020104936
:100AB0000E4A1278885401200B49087008E00C484F
:100AC0000A490978445409480078401C07490870CD
:100AD00040F22551024800F00DF800BF10BD0000A3
:100AE00000380140150000201400002016000020EE
:100AF0002C00002010B50022002340F66A14A14209
:100B000000D100BF0A1201249440A3B2DC43048048
:100B100010BD21B1828942F40052828104E08289B1
:100B20004DF6FF731A408281704702460020B1F5EE
:100B3000007F00D100BF13880B400BB1012000E003
:100B40000020704770B502460024002300250020D5
:100B500040F66A16B14200D100BFC1F3421501F060
:100B60001F03012606FA03F3012D02D196893340B3
:100B700006E0022D02D1168A334001E0968A334006
:100B80000C12012606FA04F41688344013B10CB195
:100B9000012000E0002070BDF0B5034600240026CF
:100BA0000025002040F66A17B94200D100BF184660
:100BB000C1F3421401F01F06012707FA06F5012CC4
:100BC00001D10C3004E0022C01D1103000E01430CF
:100BD0001AB107682F43076002E00768AF43076058
:100BE000F0BD00002DE9F04786B005460E46002412
:100BF000A24600BFA1460027B08900B100BF2F4622
:100C00002C8A4CF6FF700440F08804432C82AC8997
:100C10004EF6F3100440B0883189084371890843C7
:100C20000443AC81AC8A4FF6FF400440B0890443D2
:100C3000AC8201A8FFF7CCFC1F48874202D1DDF847
:100C400010A001E0DDF80CA0A88900F4004040B13C
:100C50000AEBCA0000EB0A1031684900B0FBF1F85A
:100C600007E00AEBCA0000EB0A1031688900B0FB0C
:100C7000F1F86420B8FBF0F004012009642101FBC5
:100C80001089A88900F4004040B1322000EBC9006F
:100C9000B0FBF1F000F00700044308E0322000EB65
:100CA00009106421B0FBF1F000F00F0004432C8127
:100CB00006B0BDE8F0870000003801400146888892
:100CC000C0F308007047C1F308028280704700BF7C
:100CD000FEE702E008C8121F08C1002AFAD17047D7
:100CE0007047002001E001C1121F002AFBD17047AC
:100CF00010B5044620210548FFF7DBFA2046FFF730
:100D000028FA20210148FFF7D2FA10BD000801405F
:100D100000F01EF92AE016480078012826D115496E
:100D20001548FFF7CFFC13480078402803D100F0A6
:100D30002DF800F01BF90F480078232809D100F0A6
:100D40006BF80E4802880E4801880E48007800F0C3
:100D5000BFF808480078242805D100F01BF90A489C
:100D60000088FFF7C5FF002001490870D3E70000A5
:100D7000140000202C000020003801402400002036
:100D8000220000202600002028000020002000BFB4
:100D900025E08100891C134A515C3039642251439B
:100DA0008200D21C0F4B9A5C303A02EB820201EBBC
:100DB00042028100091D595C1144303949B20A4A86
:100DC00011548100491C1A46515C312905D106494C
:100DD000095C494249B2044A1154411CC8B2042872
:100DE000D7DB70472C0000201A0000201CB5032020
:100DF000019001200090042301AA03213420FFF771
:100E0000B3FA0520FFF7A5F901236A46152134201E
:100E1000FFF7AAFA1CBD00001E48C07830381E49F2
:100E200008701C48407930384FF47A7148431949AA
:100E30008979303901EBC10202EB011100EB81012C
:100E40001448C079303800EB800001EB40011148B4
:100E5000007A30380844114908800E48807A3038CA
:100E60004FF47A7148430B49C97A303901EBC1021A
:100E700002EB011100EB81010648007B303800EBEA
:100E8000800001EB40010348407B303808440449AE
:100E9000088070472C00002026000020240000203D
:100EA0002200002008B501210420FFF781FB032068
:100EB000ADF8000010208DF8030003208DF802002B
:100EC00069460248FFF768F908BD000000080140C4
:100ED0002DE9F04780460D4616464FF000090724DD
:100EE00000275520174908704870084680F802808E
:100EF000C470012008714E7130128871CD712812B2
:100F00000872022704E00F48C05D8144781CC7B214
:100F1000601C8742F7DD6FEA0900C1B2094AA01CD4
:100F2000115401210848FFF7C2F902210648FFF7D2
:100F3000C0F9E01CC2B203490448FFF7D2FBBDE888
:100F4000F0870000900000200008014000440040AD
:100F500010B5FFF7B9FCFFF7B9FAFFF7AFF9FFF7E4
:100F600045FFFFF79FFF00F02FF810BD10B50423D9
:100F7000024A33213420FFF7F7F910BD1A00002090
:100F800010B50423024A33213420FFF7EDF910BDD8
:100F90001E000020002001200CE00949095C3039C6
:100FA000084A128802EB820201EB4201054A1180D5
:100FB000411CC8B20249095C2129EED170470000EA
:100FC0002C0000202800002008B501210420FFF794
:100FD000EFFA3020ADF8000010208DF80300032058
:100FE0008DF8020069460648FFF7D6F8102104483C
:100FF000FFF75DF920210248FFF759F908BD00000D
:101000000008014024100008000000202C0000000F
:10101000D20C0008501000082C00002074040000BE
:10102000E20C0008000000000102030401020304B6
:10103000060708090204060800000000000000007E
:1010400000000000000000000000000000000000A0
:04000005080000ED02
:00000001FF
